:020000040800F2
:10000000806E0020152E00086B900008012E00085D
:10001000012E0008012E0008012E0008000000003B
:10002000000000000000000000000000D92E0008C1
:10003000012E000800000000752E0008012E0008A7
:100040009D3000089D3000089D3000089D3000085C
:100050009D3000089D3000089D3000089D3000084C
:100060009D3000089D3000089D3000089D3000083C
:100070009D3000089D3000089D3000089D3000082C
:100080009D3000089D3000089D3000089D3000081C
:100090009D3000089D3000089D3000089D3000080C
:1000A0009D3000089D3000089D3000089D300008FC
:1000B0009D3000089D3000089D3000089D300008EC
:1000C0009D3000089D3000089D3000089D300008DC
:1000D0009D3000089D3000089D3000089D300008CC
:1000E0009D3000089D3000089D3000089D300008BC
:1000F0009D3000089D3000089D3000089D300008AC
:100100009D3000089D3000089D3000089D3000089B
:100110009D3000089D3000089D3000089D3000088B
:100120009D3000089D3000089D3000089D3000087B
:100130009D3000089D3000089D3000089D3000086B
:100140009D3000089D3000089D3000089D3000085B
:100150009D3000089D3000089D3000089D3000084B
:100160009D3000089D3000089D3000089D3000083B
:100170009D3000089D3000089D3000089D3000082B
:080180009D3000089D300008CD
:1001880053B94AB9002908BF00281CBF4FF0FF31F6
:100198004FF0FF3000F00CB8ADF1080C6DE904CE5B
:1001A80000F010F8DDF804E0DDE9022304B0704740
:1001B800704700BF034613F8012B002AFBD1181A19
:1001C800013870472DE9F04786468C460846089E58
:1001D800154674461946002B40F0C2808542B2FA93
:1001E80082F245D94AB1C2F1200300FA02FC2EFA84
:1001F80003F3954043EA0C0C94404FEA154EA8B21D
:10020800BCFBFEF8230C0EFB18CC08FB00F943EAF4
:100218000C43994528D9EB1808F1FF3704D29945C2
:1002280002D9A8F102072B44A3EB0903A4B2B3FB3C
:10023800FEFC0EFB1C330CFB00F044EA0344A04216
:1002480014D92C190CF1FF3304D2A04202D9ACF115
:1002580002032C44241A43EA07401EB1D440002369
:1002680034607360BDE8F0874746DDE76346F1E731
:1002780092BB431B01214FEA154EAFB2B3FBFEFC04
:10028800200C0EFB1C330CFB07F840EA034398458F
:1002980062D9EB180CF1FF3004D2984502D9ACF1C1
:1002A80002002B44A3EB0803A4B2B3FBFEFC0EFB35
:1002B8001C330CFB07F744EA0344A7424ED92C1918
:1002C8000CF1FF3304D2A74202D9ACF102032C444B
:1002D800E41B43EA0040C0E7C2F1200320FA03F11F
:1002E800954090402EFA03F303434FEA154EAFB200
:1002F800B1FBFEFC0EFB1C10190C0CFB07F841EAC5
:100308000041884504FA02F422D969180CF1FF303B
:1003180004D2884502D9ACF102002944A1EB0801B6
:100328009BB2B1FBFEFC0EFB1C110CFB07F743EA6A
:1003380001439F420ED9EB180CF1FF3104D29F42C2
:1003480002D9ACF102012B44DB1B41EA004192E7E0
:100358006046E3E76146F7E76046A3E76346B7E729
:10036800834206D916B9002108467BE7C6E900E0B2
:10037800F9E7B3FA83F78FB9834201D3724508D8F6
:10038800BEEB020460EB030301209C461EB900216A
:1003980068E73846FAE7C6E9004CF8E7C7F1200CE9
:1003A800BB4022FA0CF41C432EFA0CF120FA0CF391
:1003B800B84001434FEA14490EFA07F5B3FBF9F8C0
:1003C8001FFA84FE09FB18300B0C08FB0EFA43EAEF
:1003D80000439A4502FA07F240D9E31808F1FF30C2
:1003E80004D29A4502D9A8F102002344A3EB0A03D8
:1003F80089B2B3FBF9F809FB183308FB0EFE41EA92
:1004080003418E452CD9611808F1FF3304D28E457B
:1004180002D9A8F10203214443EA0040A0FB029854
:10042800A1EB0E014145CE46434602D306D14D45C8
:1004380004D2B9EB020E68EB04030138002EA6D0F3
:10044800B5EB0E0261EB030101FA0CFC22FA07F38B
:100458004CEA0303F940C6E9003198E74046C5E78E
:100468004346D9E72DE9F041034600681979DB884E
:1004780003F03002302AD0E9014706690ED121493C
:10048800214A224840F2F73308F029FC204808F0B6
:1004980026FC40F2F7311C4808F018FC03F006026D
:1004A800042A09D11B49184A184840F2FE3308F0BB
:1004B80016FC40F2FE31EEE724680125DA0705FA5A
:1004C80001F554BF43F4B01383F4D013254223F449
:1004D80080120CD110490C4A0C4840F2114308F024
:1004E800FEFB0E4808F0FBFB40F21141D3E73468ED
:1004F800DB074CBF2C43AC4334603B68BDE8F0419C
:10050800184700BFCFB100089EB1000808B2000824
:1005180025B2000862B2000895B20008D3B20008FC
:1005280010B503460A46006819790469012303FADD
:1005380001F143681B6819420ED10E490E4A0F4853
:1005480040F2A26308F0CBFB0D4808F0C8FB0A484C
:1005580040F2A26108F0BAFB2368194218BF82F082
:10056800010222B18368DB68BDE810401847836840
:100578001B69F9E795B200089EB1000808B20008A7
:10058800D3B200081FB5104808F030FB04460E48E7
:1005980008F02CFB5CB150B10C480021FFF7C0FFFC
:1005A8000B48012104B0BDE81040FFF7B9BF094B63
:1005B80002930023CDE9003307490122184608F0C9
:1005C80006FB04B010BD00BFCCA70008D8AC0008DB
:1005D800D0AC0008E5B2000858AC00081FB51048B8
:1005E80008F004FB04460E4808F000FB5CB150B16B
:1005F8000C480121FFF794FF0B48012104B0BDE826
:100608001040FFF78DBF094B02930023CDE900335B
:1006180007490122184608F0DAFA04B010BD00BFF5
:10062800CCA70008D8AC0008D0AC0008E5B2000898
:1006380058AC00082DE9FF41604808F0D7FA034696
:1006480050B95F4A5F490093CDE90132012208F0B1
:10065800BEFA04B0BDE8F081584808F0C7FA03466E
:1006680008B9594AEEE7594E306808F0BFFA034610
:1006780008B9574AE6E75748FFF7F4FE044658B169
:10068800554B02930023CDE9003303904D490122D5
:10069800184608F09CFADCE75048FFF7E3FE0546E9
:1006A80030B14F4B0390CDE9014300942346EDE769
:1006B8003046FFF7D7FE044630B14A4B0390CDE9E8
:1006C800015300952B46E1E7FFF788FF464F3D4E63
:1006D800464D0023CDE90274CDE9003303223146AB
:1006E800184608F074FA2846013409F083FD0A2CEC
:1006F800EFD1DFF8FC80334F344E02250024234627
:10070800032239462046CDE90044CDF8088008F098
:100718005EFA01213046FFF703FF364809F06AFD0B
:10072800354B0094CDE90143032223463946204640
:1007380008F04DFA21463046FFF7F2FE2F4809F03F
:1007480059FD012D38D12E48DFF8B8801D4F1F4EB6
:1007580008F0AFFAFFF716FF0A2500242346032204
:1007680039462046CDE90044CDF8088008F02FFA34
:1007780001213046FFF7D4FE00214FF4C87007F07E
:100788007BF8214B0094CDE90143032223463946E7
:10079800204608F01CFA21463046FFF7C1FE4FF408
:1007A8006160002107F068F8013DD6D100214FF4BF
:1007B8007A6007F061F8F9E701259FE7CCA7000800
:1007C80004B3000858AC000829B30008B00500209D
:1007D8004FB30008D8AC00086AB30008D0AC0008D2
:1007E80092B30008BBB30008DFB30008400D030054
:1007F800EBB30008A0860100F5B30008A0BB0D000C
:10080800FFB3000817B4000822B40008B2F5802F1F
:100818002DE9F0410ED33C493C4A3D4840F21323B0
:1008280008F05DFA3B4808F05AFA40F213213748BD
:1008380008F04CFA042A0CD83749344A344840F2B4
:100848001A2308F04CFA354808F049FA40F21A2100
:10085800EDE7043ACD1D8E1825F0070526F00706AA
:10086800761B172E4FEAD6070CD82D49274A284859
:1008780040F2232308F033FA284808F030FA40F20F
:100888002321D4E7B7FA87F4C4F12002C4F1240481
:10089800A4000734E408631C4FF00008BB4205605D
:1008A800AF60C5F80C800CD91E49184A18484FF497
:1008B8000E7308F014FA194808F011FA4FF40E7183
:1008C800B5E74146920005F1100009F0FDFD63000F
:1008D80043F001036B8005EBC4023B1B5900A5F8EC
:1008E80000805180AA1925F83440A2F80280AB5341
:1008F80005EBC70321465A8842F001025A80284670
:10090800BDE8F04108F079B9FBB400082DB400083F
:1009180008B2000811B5000828B5000849B5000854
:1009280062B500088BB500082DE9F04F91B0054677
:10093800009302F004030193C2F3C203013304934A
:100948008307DDF8689002920E4640F0FC81041D92
:1009580030B1072909D86FF01B0011B0BDE8F08F3E
:1009680001F007063444C6F10806009B4FF0000862
:100978004FF0040B591ECDF80C80474643464FF004
:10098800FF32DA460DB1009820600498002800F381
:10099800DF809B48DDF800C0844503D3994884452F
:1009A800C0F0D680DDF808C0A4EB050E1CF0020FDD
:1009B8004FEA9E0000F0E7804FF0000CD1E07A2863
:1009C80062D84B280FD847285ED829282DD8252843
:1009D80059D059D820287DD0A0F12309D9F1000396
:1009E80043EB090376E04C382E284DD8DFE800F0B9
:1009F800724C4C4C4C4C4C4C4C4C4C4C4E4C4C4C07
:100A08004C4C4C4C4C5C4C4E4E5C5C5C724E6F4C8F
:100A1800724C184E184C4C817E4E4C4C4E4C7E00FD
:100A2800002000234FF0040B3CE02A384FF0010E61
:100A3800C0B20EFA00F04FF6DA7E10EA0E0F49D176
:100A480010F0625E30D110F0010343D07046013CD3
:100A58005C44B4FBFBF40BFB04F4002D5ED0AAEB62
:100A6800050EA644B6453FF676AF002868D1BAF120
:100A7800040F43D1E14659F8040B20600434CC46F6
:100A88004FF0040A26E0013A002323E011F8013C64
:100A98006C2B30D111F8023C00206C2B0346C1D1DD
:100AA8004FF0080BDA46D2E70CF1070929F0070CDA
:100AB8000734FCE802AB24F0070435B1059820445C
:100AC800B0423FF648AFC4E900AB083400234FF00A
:100AD800080BDA4611F8010F002800F0BC80002B43
:100AE8007FF46DAF2528F5D1013201234FF0040BB7
:100AF800EFE7184695E700200346A8E7BAF1080F84
:100B080040F09B800CF1070929F0070CFCE8029AD9
:100B1800C4E9009A08344FF0080ADBE780B9BAF153
:100B2800040F02D10CF10409A8E7BAF1080F40F04C
:100B380084800CF1070929F0070909F1080CE9E795
:100B48000498E1460138049059F8040B009019E71D
:100B58000298800748D5A4EB050E4FEA9E004FF097
:100B6800010CBEF5007F1DD32749284A28484FF4B9
:100B78001F7308F0B4F8274808F0B1F84FF41F7154
:100B8800224808F0A3F80F2F0ED8002D46D007F101
:100B9800400CEC440CF8200C0CF8102C0398013095
:100BA800039020E00F2F0CD91749184A184840F233
:100BB800812308F094F8184808F091F840F2812150
:100BC800DEE7BDB107F1400EEE44C0B20EF8200CCE
:100BD8000EF8102CBCF1000FE0D060F07F000EF88A
:100BE800200C08F101080137C5F108000434CC468F
:100BF80005906FE7BCF1000F10D00136F3E700BF96
:100C0800DCA5000864D60008E1CC0008B6B50008E9
:100C180008B20008E4B5000805B6000801980236D5
:100C28000028E0D100980592CDE90631FFF7C2FA15
:100C3800DDE90631059A0644D5E7444A4449454862
:100C480040F2C62308F04BF85146434808F047F8ED
:100C580040F2C62194E7631BB3F5806F0CD33C497F
:100C68003A4A3C4840F2D22308F039F83B4808F0A9
:100C780036F840F2D22183E71DB9A6F10804E0183E
:100C88006BE6019A28609B082B709DF80C30C2B166
:100C9800EB7085F80280B8F1000F05D008A8002293
:100CA800C5F1010C97420ED1C5F101030DF12009E0
:100CB8004FF0000A02930DF1300B574512D1601B1B
:100CC8004BE66B70E5E710F8013B190608D50CEB0D
:100CD800040EB64503F07F033FF63DAE04F8013B32
:100CE8000132DFE7B8F1000F03D099F90020002A9C
:100CF80017DB019BD3B11AF80B2004F8012B002253
:100D0800029B18191044B0423FF625AE99F800002E
:100D180004F8010B00990392204609F0C7FB039AD7
:100D280014440AF1010A09F10109C6E799F80020FB
:100D380055F822300093019B45F822300098FFF7C0
:100D480039FA421CDCE76FF00D0006E6B6B500087C
:100D5800E1CC000808B200081FB6000834B6000845
:100D6800014B1860704700BFB805002080B50546E4
:100D78000E461746984606F00FFE034609F020FC7B
:100D8800DFF83C90044649F8003042463946304680
:100D9800A8470C4B1B7873B90B490C4A0C4840F216
:100DA800463307F09CFF0B4807F099FF074840F2CD
:100DB800463107F08BFF54F8090002F041F800BFF4
:100DC80008000000C70D002087B600085CB60008C0
:100DD80008B200089AB60008034A536823F00203D1
:100DE80053600020704700BF002004E07FB50BABC4
:100DF80005930393054B02930023CDE900330222A8
:100E0800184600F0CBFA07B05DF804FBC7B6000837
:100E180010B5EFF31184102383F31288BFF36F8F9B
:100E28001C4807F095F868B91B4A1C491C488823D8
:100E380007F055FF17491B4807F051FF882116484E
:100E480007F044FF134807F0A7F8174B1A683AB998
:100E5800164A116841F4807111601168C905FCD502
:100E68001A680C4801321A6007F080F868B90A4A13
:100E78000F490B484FF49A7307F031FF05490D48A5
:100E880007F02DFF4FF49A71D9E784F31188BFF367
:100E98006F8F10BD800B0020F0B600081DB700084A
:100EA80008B2000832B700087C0B00200070004030
:100EB80048B700085FB700081FB5EFF31184102387
:100EC80083F31288BFF36F8F294807F041F868B998
:100ED800284A29492948882307F001FF2449284836
:100EE80007F0FDFE8821234807F0F0FE204807F0B0
:100EF80053F8244A136853BBBFF35B8F224A01217E
:100F080052E8000F002804D142E8001CBCF1000F91
:100F1800F6D1BFF35B8F08D11C4A1D490093CDE978
:100F2800013218460222FFF761FF114807F01EF848
:100F3800C0B9104A174911484FF49A7307F0CFFE09
:100F48000B49154807F0CBFE4FF49A71CBE7012BFC
:100F580001BF12490B6823F480730B601368013BCF
:100F68001360E2E784F31188BFF36F8F04B010BDFC
:100F7800800B0020F0B600081DB7000808B2000872
:100F880032B700087C0B0020780B0020C7B6000899
:100F9800A0AC000848B700085FB700080070004020
:100FA800084B1A6842F400721A601A6842F48062A8
:100FB8001A601A6842F480721A60034B034A1A6076
:100FC80000F064B800200240EC06002000093D0053
:100FD800034A136823F0070303431360704700BFF5
:100FE80000700040094A9368022843F40043936064
:100FF80006D0032806D0012806D10020FFF7E8BF55
:101008000120FBE70220F9E7704700BF001002400B
:10101800022808B502D003280CD008BD0846FFF7FF
:10102800E1FF0B4A136943F004031361BDE808406C
:1010380008F03CB8FFF7CCFF054A136943F00403F6
:101048001361044A536823F004035360EEE700BFBA
:1010580000ED00E0002004E0022808B50DD10329C6
:1010680008D8094B1A6922F002021A611A6922F09B
:1010780004021A61002002F07BFE002383F311882A
:10108800BFF36F8F08BD00BF00ED00E0064B9A6DFF
:1010980042F080529A659B6D82B003F080530193B1
:1010A800019B02B0704700BF001002402DE9F84FC5
:1010B800DFF800A1404FAAEB07038F2B8146884633
:1010C8000BD93E493E4A3F484FF4A67307F007FE46
:1010D8004FF4A6713A4807F0F9FD3B4807F016FEB1
:1010E8000646002837D13C4605464FF0010B5445CB
:1010F8002AD93649324A33484FF4AC7307F0EFFD2A
:10110800334807F0ECFD4FF4AC71E3E7237B83B180
:101118002368DB680BB120469847636883F806B0FC
:1011280023681B6943B9636804221968204607F0DD
:1011380012FE01361034DAE7204698470028F2D02C
:101148000BFA06F31D43F4E7E0D3B9F1000F02D020
:101158004FF0010A0DB9BDE8F88FA94695FAA5F434
:10116800B4FA84F40AFA04F3260107EB04146FEACC
:10117800030B25EA0305237B5BB1BB591B699BB9AC
:101188003E44042273682046196809EA0B0907F0EF
:10119800E2FD002DE2D1B8F1000F03D02820002194
:1011A80006F06AFB4D46D5E7204698470028F0D15F
:1011B800E6E700BFC8AC0008B8AC0008B9B700083B
:1011C8008CB7000808B200088C0B0020E9B70008AB
:1011D8000AB80008014B53F820007047E0AC00083B
:1011E80008B5034608462BB1044A136000F00AFB11
:1011F800002008BD6FF01500FBE700BFBC0500200C
:10120800144A1548002310B51370144A1360144A81
:101218004FF47A711360FFF7E3FF124B1249184637
:101228008B4215D91149124A124840F2271307F088
:1012380056FD114807F053FD0D4840F2271107F0FD
:1012480045FD1A1A5C681211013222711033E7E762
:10125800F7D310BDC40D0020078D0008840B0020B3
:10126800880B0020B8AC0008C8AC0008E9B7000833
:101278008CB7000808B200080AB8000870B5134D0A
:10128800297809BB0120FFF711FF114C114EB44218
:1012980017D91149114A124840F2C51307F01FFD2A
:1012A800104807F01CFD0D4840F2C51107F00EFD6F
:1012B80063685B791BB1236820469B6898471034A4
:1012C800E5E7F5D301232B7070BD00BFC40D0020E6
:1012D800B8AC0008C8AC0008E9B700088CB700082B
:1012E80008B200080AB8000810B50446084807F014
:1012F8000DFD5CB1BFF35B8F064B53E8001F01394E
:1013080043E80012002AF8D1BFF35B8F10BD00BF7D
:10131800840B0020880B002070B5124B124C1B6800
:10132800124E05469847A860B44218D91049114A88
:1013380011484FF4007307F0D2FC104807F0CFFCB7
:101348000C484FF4007107F0C1FC63685B7923B166
:10135800236829461B68204698471034E4E7F4D3ED
:1013680070BD00BFBC050020B8AC0008C8AC0008C0
:10137800E9B700088CB7000808B200080AB80008E6
:10138800044A054B9B1AB1EBD30F34BF52F8310016
:101398000020704718AC0008B8AC00082DE9F04FE1
:1013A80087B004AFD7E90EA93D6B04460E469346B5
:1013B8009846BAF1000F2BD0C7F80490CDF80090EA
:1013C80010217A6B53460020FFF7AEFA011E0BDAA4
:1013D8002849294A294840F2651307F080FC40F261
:1013E8006511254807F072FCB1F5006F11DB40F27A
:1013F800FF730393224B02930023CDE90033214965
:101408000222184607F0C9FC0C37BD46BDE8F08F2C
:10141800514604F007040BF0070BE40044EA8B1470
:1014280044EA412444EA055417350D4425F00705DC
:10143800ADEB050D04ADBAF1000F13D0CDF8009057
:101448007A6B534605F11000FFF76EFA002809DAA7
:101458000849094A09484FF4C47307F040FC4FF49F
:10146800C471BEE7434622463146284607F07CFC55
:10147800CAE700BF62B8000836B8000808B200081A
:101488006CB8000840AC0008406820B1034BC01A93
:1014980040F3CF0070474FF0FF30704718AC00089A
:1014A8000EB403B503AB014653F8042B044801936B
:1014B80002F036F802B05DF804EB03B0704700BFE5
:1014C800DF8D0008CA0605D48B064CBF02490349C4
:1014D800FFF7E6BF704700BF59CF0008A4B800085F
:1014E8002DE9F04F87B004469DF844600D469046BC
:1014F8009946002E00F0B180042E0BD9A949AA4ABA
:10150800AA4840F24D2307F0EAFB40F24D21A648D5
:1015180007F0DCFB159B03F0020A03F001030493B8
:10152800159B03F0080B03F48073059307F011FC77
:10153800024600283ED09E492046FFF7B1FF0746E5
:10154800BAF1000F09D0159B13F0440F34D1994913
:101558002A462046FFF7A4FF0744049B53B1964B45
:10156800964953F82620964B2046002A08BF1A466B
:10157800FFF796FF059B002B4AD0BBF1000F65D102
:10158800B8F1000F67D08F4942462046FFF788FF21
:101598000546129B3D44002B6ED1149B002B40F056
:1015A8008380159BDB0700F1F78015992046FFF72C
:1015B80089FFE4E00746C3E7834B18680028CBD0CF
:1015C800824B4FF47A7A1B68B5FBF3F54FF46163ED
:1015D800B5FBF0F100FB11550AFB05F54FF03C0C8B
:1015E800B1FBF3F203FB1211B5FBF0FEB1FBFCF308
:1015F80000FB1E550CFB13110AFB05F50091B5FB0A
:10160800F0F57349CDE901E52046FFF749FFA3E767
:10161800BBF1000F1DD06F4B6F4953F826202046B1
:10162800FFF73EFF0546B8F1000F05D06549424671
:101638002046FFF735FF0544B9F1000FA9D06749E7
:101648004A462046FFF72CFF0544A2E74FF0000961
:10165800E1E75D46E7E745469BE7B9F1010F129BD5
:1016680006D1DBB9149B002B00F0898000251BE014
:10167800002BF7D05A4812E05A48129B5A49224682
:1016880007F0E2FA00280CDA5849474A474840F27E
:10169800A72307F024FB40F2A72138E75148354635
:1016A800EBE7149B002B67D0DFF84481DFF8449107
:1016B800149F1599102F204628BF1027FFF702FF07
:1016C8004FF0000B5D4544DC139B49461A782046D1
:1016D800FFF7E6FE4FF0010B1BF0070F03D1414661
:1016E8002046FFF7DDFE5F453AD9139B494613F8BC
:1016F8000B202046FFF7D4FE0BF1010BBBF1100FB6
:10170800EAD13D49DFF8F4B020464FF0000AFFF770
:10171800C7FE5246139B9A5CA2F120015F2928BF9D
:101728002E2259462046FFF7BBFE0AF1010ABAF1FC
:10173800100F1AD01AF0070F03D141462046FFF7C1
:10174800AFFE57455246E5D841462046FFF7A8FE6A
:10175800EBE741462046FFF7A3FE0BF1010BB1E78B
:1017680027492046FFF79CFEC6E7139B3B4413938B
:10177800149BDB1B14939BD1002E7FF412AF62687D
:10178800A1682068D2E9002307F017FB63680022EC
:101798001A6007B0BDE8F08F094A08492046FFF7EC
:1017A8007FFE02E7DBB80008ACB8000808B2000802
:1017B800E6B80008EAB80008F0AC00080FB900085D
:1017C800A7B8000812B90008940B0020900B00205D
:1017D800F3B8000804AD000816B900081CB90008E1
:1017E800FB8D0008DF8D00082935000821B90008A5
:1017F80032B900082AB9000834B9000836B9000817
:1018080030B90008074A00210123904206D8064A49
:1018180001B901231360054B1860704740085B004D
:101828000121F2E740420F00900B0020940B0020AA
:101838002DE9F04143680C481C68656800F00CFC11
:1018480001232B752568D5E90136D3E900482F68AF
:101858001CB96B681C60BDE8F081214630464246E1
:10186800B847241A0644F3E70CA80008F8B504465C
:101878000B480D4600F0F0FB002808DB084F6619FE
:10188800B44206D106480422002300F0B5FD2846DC
:10189800F8BD14F8011BBB6801485B689847EFE77F
:1018A8000CA8000810B543681C68094808F0B0FC8B
:1018B80048B908490848094A992307F010FA07481F
:1018C800992107F003FA23685B685C6010BD00BFCC
:1018D8000CA8000897B9000808B2000859B9000810
:1018E800014B0360002070474CAD0008F8B5054671
:1018F800EFF31186102383F31288BFF36F8F20480C
:1019080006F026FB68B91F4A1F492048882307F0BC
:10191800E6F91B491E4807F0E2F98821194807F043
:10192800D5F917481B4F06F037FB1B4B1C688CB9C1
:10193800134806F01BFBE8B9124A184913484FF43C
:101948009A7307F0CCF90E49154807F0C8F94FF417
:101958009A71E3E7D4E90123002D18BF13462BB190
:101968003A68217B107819B1517898472468DEE7E6
:101978009847FBE786F31188BFF36F8FF8BD00BF68
:10198800BC0B0020F0B600081DB7000808B200081C
:1019980032B70008C80B0020CC0B002048B700085D
:1019A8005FB7000810B50E4BBFF35B8F53E8002FED
:1019B80022F0010143E800100028F7D1BFF35B8F44
:1019C800D3070CD5074C236818785978FFF744FBE0
:1019D8000020FFF78BFF08F00CFC0023236010BDEC
:1019E800D40B0020C80B00202DE9F041054600F07B
:1019F800A5FA4F4F28B93B681BB900252846BDE812
:101A0800F08100F0C5F86B1C04460CDA49494A4AD3
:101A18004A48572307F063F9494807F060F9572106
:101A2800454807F053F9461C0ADA4649424A4348F2
:101A3800582307F054F9444807F051F95821EFE7C3
:101A4800681C04D0611C1AD0AC42A8BF2C46EFF326
:101A58001188102383F31288BFF36F8F3B4806F079
:101A680077FA70B93A4A3B493448882307F037F97E
:101A78003649394807F033F988213548D1E72C46EB
:101A8800E5E73248354E06F087FA3868A8B10023F2
:101A980030603B602D4806F069FA054690B92C4A3B
:101AA8002F4926484FF49A7307F019F927492D480A
:101AB80007F015F94FF49A71DFE7214607F0F7F9B7
:101AC8003060E7E788F31188BFF36F8F3368002B26
:101AD80093D09B6813F17E0F27D87D33F92B08D953
:101AE800FA22B3FBF2F3621C03D00121E01A04F0DE
:101AF80059F805F09DFC0120FFF7F8FEBFF35B8F56
:101B0800194B53E8001F41F0010143E80012002A75
:101B1800F7D1BFF35B8F336859781878FFF778FAF5
:101B2800FFF740FF05F0F6FC68E7104BDBE700BF66
:101B3800C40B002024BA0008CBB9000808B200087A
:101B480031BA000858BA000865BA0008C00B00206E
:101B5800F0B600081DB7000832B70008C80B00200F
:101B680048B700085FB70008D40B0020DD24060141
:101B780001289FBF044B53F820300B60034B94BFE0
:101B8800185C0020704700BF4CAD00088FBA0008F1
:101B980070B5EFF31186102383F31288BFF36F8FAC
:101BA8001F4806F0D5F968B91E4A1F491F488823FF
:101BB80007F095F81A491E4807F091F88821194846
:101BC80007F084F8164806F0E7F91A4B1B68E3B1EA
:101BD800D3E9024508F0F9FB241A65EB0105002D4D
:101BE80001DA002425460E4806F0C0F980B90D4AEE
:101BF80011490E484FF49A7307F071F808490F48D5
:101C080007F06DF84FF49A71D9E74FF0FF34E9E720
:101C180086F31188BFF36F8F2046294670BD00BF39
:101C2800DC0B0020F0B600081DB7000808B2000859
:101C380032B70008D80B002048B700085FB7000883
:101C480070B504460D46EFF31186102383F312880E
:101C5800BFF36F8F1B4806F07BF968B91A4A1B4916
:101C68001B48882307F03BF816491A4807F037F84D
:101C78008821154807F02AF8124806F08DF9002344
:101C88002360154B65605A689AB9C3E900440D484A
:101C980006F06CF980B90C4A10490D484FF49A7354
:101CA80007F01DF807490E4807F019F84FF49A7124
:101CB800DFE714605C60EAE786F31188BFF36F8F93
:101CC80070BD00BFE80B0020F0B600081DB7000883
:101CD80008B2000832B70008E00B002048B7000837
:101CE8005FB70008044A136818B143F0070313608C
:101CF800704723F00703FAE7CC05002008B503492D
:101D08000348FFF79DFF002008BD00BFED1C000839
:101D1800EC0B00202DE9F843294E2A4D80460F464A
:101D280000243378434541D17378BB4201D0FF2F5B
:101D38003CD1EFF31189102383F31288BFF36F8F1F
:101D4800214806F005F968B9204A21492148882325
:101D580006F0C5FF1C49204806F0C1FF88211B4832
:101D680006F0B4FF184806F017F92B6833B91B487A
:101D780001210268A14022EA0102026001331248EF
:101D88002B6006F0F3F868B9104A154911484FF46A
:101D98009A7306F0A4FF0C49124806F0A0FF4FF40E
:101DA8009A71DCE789F31188BFF36F8F0134032C34
:101DB80006F1080605F10405B3D1BDE8F88300BFB4
:101DC80078AD0008FC0B0020F40B0020F0B60008EA
:101DD8001DB7000808B2000832B70008C80500207F
:101DE80048B700085FB700082DE9F8432F4E304D7B
:101DF80080460F460024337843454ED17378BB4262
:101E080001D0FF2F49D1EFF31189102383F31288F2
:101E1800BFF36F8F274806F09BF860B9264A274919
:101E28002748882306F05BFF2249264806F057FF1B
:101E38008821214810E01F4806F0AEF82B68002BD7
:101E48000CDC2149214A1E48652306F048FF20483A
:101E580006F045FF1D48652106F038FF013B2B6061
:101E68002BB91C4901220B68A24013430B6011488F
:101E780006F07CF868B9104A174911484FF49A736C
:101E880006F02DFF0B49154806F029FF4FF49A710B
:101E9800CFE789F31188BFF36F8F0134032C06F164
:101EA800080605F10405A6D1BDE8F88378AD000859
:101EB800FC0B0020F40B0020F0B600081DB700084A
:101EC80008B2000832B70008FDBA000891BA000845
:101ED800DDBA0008C805002048B700085FB7000849
:101EE80008B50246124806F0DCFF0346E8B9022AA4
:101EF80015D1012915D0FF2913D0022913D00329A0
:101F08000DD10C4800EB820006F0CBFF28B90A4837
:101F180006F0C7FFD04000F0010303F001031846A4
:101F280008BD1A46EDE70122EBE70023F7E700BFFB
:101F3800F80B0020FC0B0020CC05002008B5094850
:101F480006F0AFFF58B9084806F0ABFF034607484C
:101F580006F0A7FF034214BF0120002008BD00209F
:101F6800FCE700BFF80B0020C8050020CC050020C6
:101F7800024B187880F00100704700BFC70D0020A1
:101F88007FB50BAB05930393054B02930023CDE973
:101F9800003302221846FFF701FA07B05DF804FB88
:101FA8002CBB000870B50446C069002846D008213B
:101FB80007F023F80146002839D0E5691435EFF316
:101FC8001186102383F31288BFF36F8F284605F01C
:101FD800BFFF68B91A4A1B491B48882306F07FFED1
:101FE80029461A4806F07BFE8821154806F06EFE41
:101FF800284605F0D1FF204606F0D4FF04462846BF
:1020080005F0B4FF68B90E4A11490F484FF49A73A6
:1020180006F065FE29460F4806F061FE4FF49A71F6
:10202800E3E786F31188BFF36F8F204670BD204623
:102038000022BDE87040002300F016B90446F4E71A
:10204800F0B600081DB7000808B2000832B700084B
:1020580048B700085FB700082DE9F347C569064689
:1020680025B90024204602B0BDE8F087052128469E
:1020780006F0C3FF0028F4D0F069082106F0BDFF80
:102088000446002858D0F7691437EFF31188102355
:1020980083F31288BFF36F8F384605F059FF68B98C
:1020A8006B4A6C496C48882306F019FE39466B4820
:1020B80006F015FE8821664806F008FE384605F049
:1020C8006BFFF569EA682B6862BB5A070DD428696B
:1020D80058B1C3691B68DB0526D5FFF7BDFF041E91
:1020E8000EDB2B6843F004032B60AB6801213046FC
:1020F8009847041E04DB00232B71EB680133EB6067
:10210800384605F033FF90B9514A554952484FF4C3
:102118009A7306F0E4FD3946524806F0E0FD4FF4A4
:102128009A71C8E70024E8E76FF00A04E8E788F343
:102138001188BFF36F8F95E7FFF71AFF074650B96D
:1021480008F0E9F8421E67F1000305F1180006F0EF
:102158005DFF041E79DB08F0DEF810B12B79022B45
:1021680013D02F694FB3F069022106F046FF20BB58
:102178003846FFF771FF044648B90121284606F0A2
:102188003CFF70B13846FFF70DFF6FF00A04FFF708
:10219800EFFE00287FF466AF05F1180006F038FF5F
:1021A80060E7BFF35B8F55E8003F43F0040345E861
:1021B8000032002AF7D1BFF35B8FEB680133EB6085
:1021C8002B79022B08D105F1380004F02FFD10F00F
:1021D800010001D12871DAE7FFF7CAFE40B905F11D
:1021E80028064FF0FF384FF0FF392B79022B11D01A
:1021F800EB68012BCBD8AB68686901219847041EAE
:1022080020DAEB68013BEB60002FC0D03846FFF7BF
:10221800C9FEBCE70321304605F1180A08F03FF96A
:10222800504606F0F5FE0022CDE90089032130462C
:1022380008F039F94FF0FF324FF0FF33504606F0FF
:10224800E5FED2E700232B71A1E76FF00A0409E746
:10225800F0B600081DB7000808B2000832B7000839
:1022680048B700085FB700082DE9B047C56985B0D1
:10227800074688462846052106F0BFFE924699463D
:10228800044638B3FFF774FE044668B908F043F80B
:10229800421E64F1000305F1180006F0B7FE041EA3
:1022A80004DA6FF00F0415E00024A046EB68ABB920
:1022B800244A25490093CDE9013218460222FFF746
:1022C8005FFE6FF07704FFF753FE18B905F11800A9
:1022D80006F09EFE204605B0BDE8B087013BEB60E6
:1022E800002BF0D1B8F1000F08D002232B71524611
:1022F8004B4605F1380004F093FCE4E7AB686869E5
:1023080041469847041E03DAEB680133EB60DAE7CD
:1023180001232B71F869022106F06FFE0028D2D044
:10232800FB691869FFF73EFEFB69BFF35B8F53E853
:10233800001F21F0040143E80012002AF7D1BFF37F
:102348005B8FC0E72CBB000878AC0008F8B500210B
:10235800044650F8303C50F8240C9847A4F1200764
:102368004FF0FF3305464FF0FF32384606F04EFE79
:10237800002DBDBF54F82C3C013344F82C3C0123FC
:10238800B8BF002304F8343C01219940A4F110009F
:1023980008F081F83846A4F1380606F039FE6DB128
:1023A800114A12491248982306F099FC1148294607
:1023B80006F095FC0C48982106F088FC022130466E
:1023C80006F01BFE78B154F8280CFFF7EBFDBFF3BD
:1023D8005B8F56E8003F23F0040346E80032002AEA
:1023E800F7D1BFF35B8FF8BD3FBB00086DBB00089A
:1023F80008B2000876BB000870B50446C06900281A
:1024080044D0082106F0F9FD002839D0E5691435D3
:10241800EFF31186102383F31288BFF36F8F2846DA
:1024280005F096FD68B91A4A1A491B48882306F030
:1024380056FC2946194806F052FC8821144806F033
:1024480045FC284605F0A8FD204606F0ABFD0446ED
:10245800284605F08BFD68B90D4A11490E484FF41E
:102468009A7306F03CFC29460E4806F038FC4FF4F7
:102478009A71E3E786F31188BFF36F8F204670BD2A
:1024880020460121BDE87040FFF7EEBE0446F5E79F
:10249800F0B600081DB7000808B2000832B70008F7
:1024A80048B700085FB700082DE9F041C56906463E
:1024B800002D00F097800521284606F09EFD002893
:1024C80040F09380304606F02BFD0446002840F08B
:1024D8008E80F069082106F090FD00284DD0D6F8CE
:1024E8001C8008F11405EFF31187102383F3128879
:1024F800BFF36F8F284605F02BFD68B93D4A3E496A
:102508003E48882306F0EBFB29463D4806F0E7FBEA
:102518008821384806F0DAFB284605F03DFD98F892
:10252800041041B9D8F8083030469847041E0BDB30
:10253800012388F80430D8F8003043F02003C8F8A5
:1025480000300023C8F80C30284605F00FFD68B9A4
:10255800284A2C4929484FF49A7306F0C0FB2946AB
:10256800294806F0BCFB4FF49A71D2E787F311882B
:10257800BFF36F8F2046BDE8F081FFF7F9FC38B94B
:102588004FF0FF324FF0FF3305F1180006F03EFD23
:102598006B692BB91D496E6105F1380004F090FA9A
:1025A8002979E9B9AB6868699847041E0FDB0123EC
:1025B8002B710023EB60BFF35B8F55E8003F43F0BE
:1025C800200345E80032002AF7D1BFF35B8FFFF7FD
:1025D800CFFC0028CED105F1180006F019FDC9E797
:1025E8000024E6E76FF08504C4E70024C2E76FF033
:1025F8000F04BFE7F0B600081DB7000808B20008CE
:1026080032B7000848B700085FB70008552300082C
:1026180008B50348034A0021121A06F00AFD08BD4E
:10262800F8080020CC0D00200748084A084908B5DA
:10263800121A06F000FD0748074A0849BDE8084095
:10264800121A06F0F8BC00BF00000020F8080020AD
:1026580064D60008000000200000002064D60008AE
:1026680070B5064686B00D46002938D08B680593AC
:102678004B6804930B6803930024244B244902936A
:10268800012223462046CDE9004406F0D6FC6B69BA
:1026980005932B690493EB6803931E4B1C49009424
:1026A800CDE9014301222346204606F0C6FCEB692A
:1026B8000393194B16490094CDE90143012223469F
:1026C800204606F0BAFCAB690393144B10490094FA
:1026D800CDE9014301222346204606F0AEFC012E37
:1026E8000DD1EFF30583103B03930D4B02930023A9
:1026F800CDE9003306493246184606F09EFC2946C5
:10270800304606B0BDE8704003F074BC9CBB0008BE
:1027180068AC0008CBBB0008FABB000809BC00087D
:1027280037BC000830BFFFF7FDBF00BF2DE9F041FF
:102738000B4EDFF8308006EB0807CC1B0546324607
:102748000949204607F0B2FEA01942460021083C7C
:1027580007F0BAFEC5F8804007F10800BDE8F0812F
:102768000000000004000000C8AC0008054B9A698E
:102778009B689A421FBF044A536843F080535360D2
:10278800704700BF7C0D002000ED00E0F0B585B07B
:102798000024434B0293CDE90044234607460E46E6
:1027A80001224049204606F063FC3F4B9B6ADB044C
:1027B80065D53E4B3B490094CDE90143204623466D
:1027C800012206F055FC1720374B9B6A1D050AD5D8
:1027D800374B029300231846CDE9003331490122D3
:1027E80006F046FC1820304DAB6A9C051FD5002426
:1027F800304B0293012223462046CDE90044294963
:1028080006F036FCAB6BAA6A10040FD503932A4B6B
:1028180024490094CDE9014301222346204606F0CD
:1028280027FC1FB1AB6A23F40043AB6219201E4B8F
:102838009B6A59050AD5214B029300231846CDE916
:1028480000331849012206F013FC1A20164A936A2D
:1028580013F4807315D01A4B029300231846CDE960
:1028680000331049012206F003FC1B200E4A936A2C
:1028780043F47F4393620023337005B0F0BD162004
:10288800A2E7926A9204F1D50E4A06490093CDE96F
:1028980001321846012206F0EBFB1C20E6E700BFD8
:1028A8004ABC000868AC000800ED00E060BC000805
:1028B80071BC000884BC00089DBC0008B2BC0008BC
:1028C800CDBC0008E5BC00081FB50024374B0293B7
:1028D80001222346CDE900443549204606F0C8FBCD
:1028E800344B9B6A9A015ED5334B31490094CDE94C
:1028F800014320462346012206F0BAFB1E202D4B39
:102908009B6ADB010AD52D4B029300231846CDE9BB
:1029180000332749012206F0ABFB1F20254B9B6A99
:102928001C030AD5264B029300231846CDE9003331
:102938001F49012206F09CFB21201E4B9B6A59036C
:102948000AD5204B029300231846CDE900331849D5
:10295800012206F08DFB2220164B9B6A9A030AD5AA
:10296800194B029300231846CDE900331049012280
:1029780006F07EFB23200F4B9B6ADB030AD5134B23
:10298800029300231846CDE900330949012206F0D5
:102998006FFB2420074A936A6FEA03436FEA1343E5
:1029A800936204B010BD1D20A9E700BF14BD000844
:1029B80068AC000800ED00E02CBD00083FBD000831
:1029C80059BD000877BD00089CBD0008B6BD0008C9
:1029D8002DE9F04385B00024564B0293CDE900441D
:1029E800234680468946204653491646012206F06A
:1029F8003FFB524B9B6AD80640D5514B0094CDE91A
:102A08000143204623464C49012206F031FB11249C
:102A18004A4B9B6A19070AD54A4B02930023CDE912
:102A2800003345490122184606F022FB1224434D83
:102A3800AB6A9A0724D50024434B0293CDE900449E
:102A480023463D490122204606F012FB6F6BAB6A14
:102A58001B0659D53D4B38490397CDE901430094EE
:102A680023460122204606F003FBB9F1000F03D0EC
:102A7800AB6A23F08003AB62132403E01024C7E79A
:102A88006FF015072D4B9B6AD8070AD5304B029378
:102A98000023CDE9003328490122184606F0E8FA58
:102AA8001424264B9B6A99060AD52A4B02930023C5
:102AB800CDE9003320490122184606F0D9FA152439
:102AC8001E4DAB6ADA0602D4AB6A9B070AD56B685F
:102AD800180507D54146384600F094FAB8B180F396
:102AE80009880224154B9A6A920642BF5A6A22F450
:102AF80000525A629A6A42F0FF029A622046002304
:102B0800337005B0BDE8F0836FF01507B4E7AB6A22
:102B1800D906E7D51049114A114840F2271306F0A3
:102B2800DEF8104806F0DBF80C4840F2271106F0F2
:102B3800CDF800BFE1BD000868AC000800ED00E07A
:102B4800F7BD000871BC00082ABE000842BE000894
:102B580058BE0008E5BC0008A9BE000877BE0008FA
:102B680008B20008F3BE00082DE9F041894B04467D
:102B7800586890B0C0F30806002383F31188BFF3A8
:102B88006F8F02F07F45B5F17F4F0CD102F00C0535
:102B9800082D17D1804A81490093CDE901321846A2
:102BA800012206F065FA7E497E4A7F4840F21443C6
:102BB80006F095F87D4806F092F840F214417948FD
:102BC80006F084F8120746BF0C461D460125002C66
:102BD800E9D04FF00008F31E8DF81F80092B00F292
:102BE800BF80DFE803F005B3B796BDBDBDBDBDBB73
:102BF8006F4B6A49674FCDF80080CDE90183002308
:102C08000122184606F034FA8DF81F80FE6A16F085
:102C1800020605D0674BCDF80080CDE9018306E0B8
:102C2800FB6A002B0BDA644B0096CDE901630023A5
:102C38005A490122184606F01BFA002230E0FB6AC6
:102C48005B0076D55D4B55490096CDE901630122BD
:102C58003346304606F00CFA7B69A26943F4807368
:102C68007B61BFF34F8FBFF36F8F7B6932F8022C04
:102C780023F480737B61BFF34F8FBFF36F8F4DF6E3
:102C880002739A422CD1236803934D4B4349009613
:102C9800CDE9016301223346304606F0E9F922689E
:102CA8009DF81F30CBB908AE04F120072068616891
:102CB800334603C30834BC421E46F7D10F9B002D90
:102CC80062D0C3F3080121B96FEA53236FEA4323A3
:102CD8000F9308A91046FFF7C3FC10B0BDE8F081B8
:102CE800BB6ADBB23BB10DF11F0201212046FFF7A1
:102CF8006FFE0246D4E7BB6A13F47F4F05D00DF18F
:102D08001F010120FFF742FDF3E7BB6AB3F5803FDF
:102D180002D3FFF7D9FDECE72A49224A224840F2BC
:102D2800ED2305F0DCFF284805F0D9FF40F2ED213E
:102D380045E724491B4A1C484FF43C7305F0CFFF74
:102D4800224805F0CCFF4FF43C7138E70DF11F0223
:102D58000021CBE70DF11F010020D3E71C4B5AE7F8
:102D68001C4A1D4B0D4910F4F87F18BF1346103E3E
:102D7800CDE90336194B02930023CDE90033012234
:102D8800184606F075F958E723F4FF7323F001039A
:102D98009EE700BF00ED00E044BF000868AC0008F3
:102DA8006FBF000877BE000808B2000882BF00089D
:102DB800C0BF0008D7BF0008F8BF000806C0000859
:102DC80025C00008E1CC000841C0000865C0000823
:102DD80095C000082BBF000816BF0008B9C000083E
:102DE800044B5A6942F010025A615A6922F00802EB
:102DF8005A61704700ED00E0EFF30880EFF30981B6
:102E080001B57246FFF7B0FE01BD00BF0A4880F366
:102E18000888102080F3118808484FF401514018A1
:102E280080F30988EFF314800221084380F31488A3
:102E3800BFF36F8F00F0AEF8806E0020000E002008
:102E4800084B9B6883420BD1EFF3058343B1064BD4
:102E58005A6842F080525A605A6A22F400425A6212
:102E680004F0A0BD7C0D002000ED00E015498A6843
:102E78004FF030001044EFF3098C80E8F01F102069
:102E880080F31288BFF36F8F0F4F4FF000668A6987
:102E98008A603E60D2F880000C4C2060D2F8840032
:102EA8000023C2F8843080F3118804B5104600F07E
:102EB80023F9BDE8044002F1300090E8F01F8CF3DC
:102EC800098870477C0D002004ED00E0080C002004
:102ED8001EF0040F0CBFEFF30880EFF3098081693F
:102EE80011F8021C0229FFD001B5724606F0B5F8A8
:102EF80001BD00BF40B2002807DB044A4109012395
:102F080000F01F00834042F82130704700E100E0E4
:102F180038B54B1C0F2B04460D460FD9114A1249E0
:102F280012486B2305F0DBFE114829460F23224681
:102F380005F0D5FE0B486B2105F0C8FE40B200280D
:102F4800ACBF00F160400B4A4FEA0313B8BF00F072
:102F58000F00DBB2AABF00F56140135480F80033BC
:102F680038BD00BFCCC0000803C1000808B2000883
:102F78001EC1000814ED00E0044B054A23F07F034E
:102F88009360BFF34F8FBFF36F8F70470000000847
:102F980000ED00E008B5FFF7EFFF0B4AD2F88830E4
:102FA80023F47003C2F88830EFF3148323F004038A
:102FB80083F31488BFF36F8FFFF72AFBFFF734FB07
:102FC80000F05CF803F072F900ED00E042F8203CF4
:102FD800009B42F81C3C0A49019B42F8183C029BA2
:102FE80042F8143C21F001014FF0807342F8043C90
:102FF80042F8081C0023203A0265C0F88430704764
:10300800750D0008094A0346906870B113F1160F50
:10301800006F05D0A0F140029A4205D8834203D23E
:10302800814228BF00207047002070477C0D002097
:1030380008B515460C4A0D4B9060D0F880201A60F0
:103048000E4600F059F82C4686F309880020044BF8
:1030580098472046002100220023024C2047000008
:10306800A7900008750D00087C0D0020080C0020B2
:10307800014B10221A61704700ED00E0044800235C
:103088001021C2180133522B82F80013F9D170476E
:1030980000E100E010B5EFF31184102383F31288E8
:1030A800BFF36F8F0C4B5A691AB100225A61FEF7B1
:1030B80079FC84F31188BFF36F8FEFF30583074A18
:1030C800103B02EBC30152F8330049688847BDE85A
:1030D8001040FFF74BBB00BF7C0D0020ECA8000898
:1030E800024B034A0348012100F096B800800120F2
:1030F8000000002090AD0008026F054B403A1A60AE
:10310800044A4021C3E901121846012100F0AAB877
:103118000C0C002000000B151FB5144AD2F8903093
:10312800C3F30723013B98420FD9114B02930023A5
:103138000390CDE9003318460E49012205F0D3FF6C
:103148006FF0150005B05DF804FBC2F898000B6835
:1031580023F01F03034343F01003C2F89C308B682D
:1031680043F00103C2F8A030ECE700BF00ED00E037
:1031780062C1000860AC0008F0B50E4689B01F4671
:1031880004460025B54212DA606838B3BFB1431E61
:1031980018420FD0134B02930023CDE90033124994
:1031A80003950122184605F09EFF6FF015021046A0
:1031B80009B0F0BD1F28EDD921680B42EAD1236878
:1031C800059305F080FFA36805A90343D0B20793D0
:1031D800FFF7A2FF10F1160FE7D0421C01350C349F
:1031E800D0E700BF88C1000860AC0008044B052286
:1031F800C3F89420BFF34F8FBFF36F8F704700BFA2
:1032080000ED00E0BFF35F8F024B0022C3F894206B
:10321800704700BF00ED00E038B50D4D01232A7856
:103228000C46FFF7A9FF287016300FD1094A0A4942
:103238000A484FF4C47305F052FD0948214605F0C9
:103248004EFD04484FF4C47105F040FD38BD00BF81
:10325800C60D0020ABC10008E1CC000808B2000888
:10326800DAC1000810B5144A002312780C46FFF79B
:1032780083FF10F1160F08D0104A0021D2F89030C1
:10328800C3F30723984210DB10BD0D4A0D490E48C1
:1032980040F2A71305F023FD0C48214605F01FFD59
:1032A800074840F2A71105F011FDC2F89800C2F8CE
:1032B800A0100130E2E700BFC60D002000ED00E0DD
:1032C800ABC10008E1CC000808B2000806C200083B
:1032D8002DE9F04F834C8449D4F890300D68C3F33E
:1032E80007239D4285B013D9804A8149814840F21D
:1032F800012305F0F4FCD4F890207F482946C2F356
:10330800072205F0ECFC40F20121784805F0DEFCCC
:10331800FFF778FF49680022954201F10C012DD191
:10332800764C774F25706846FEF7DAFADFF8D481D5
:10333800DFF8D49106460025AE4232D12378694998
:103348000020D1F89020C2F307229342C0F2BF8038
:10335800FFF74CFFD1F89030C3F30723082B00F098
:10336800BC806A49614A634840F2732305F0B7FCA0
:10337800674805F0B4FC40F27321C6E7C4F898200A
:1033880051F80C3C23F01F03134343F01003C4F817
:103398009C3051F8043C43F00103C4F8A0300132DA
:1033A800BAE7009A02EB05132901D3F80CA00AEA40
:1033B8000700B0F5000F65D00AD8B0F5001F3BD064
:1033C800B0F5800F51D0B0F5801F15D00135B3E7A7
:1033D800B0F1007F61D0B0F1805F69D0B0F1807F3B
:1033E800F4D19868D3F804A0525805F06CFECDE9E2
:1033F80001A240F088700BE09868D3F804A05258F6
:1034080005F061FECDE901A240F0885040F430207B
:103418000390207801A9FFF77FFE002853DA34498A
:10342800324A344840F22B2305F059FC394805F05C
:1034380056FC40F22B2168E79868D3F804B052583C
:1034480005F041FE1AF0010F40EA0900CDE901B28A
:103458000390DED03049254A2648832305F03FFCF7
:103468002E4805F03CFC83214FE79868D3F804A068
:10347800525805F028FE40F00070CDE901A240F452
:103488000030C5E79868D3F804A0525805F01BFE31
:10349800CDE901A240F08270BAE79868D3F804A099
:1034A800525805F010FECDE901A240F48020AFE7A4
:1034B8009868D3F804A0525805F005FECDE901A29A
:1034C80040EA0800A4E72378013323707EE7C1F8B7
:1034D8009830C1F8A000013333E7002005B0BDE8FB
:1034E800F08F00BF00ED00E09CAD0008ABC1000804
:1034F800E1CC000808B2000833C20008C60D00205D
:103508000000F0FF0000021100000811E6C20008E8
:1035180036C30008BCC2000867C200088DC2000894
:10352800F0B587B007460E461446002110226846BB
:103538001D4606F0C9FF02238DF802302A46054BC6
:10354800019321466846CDE9047605F0E3F807B013
:10355800F0BD00BF0F91000808B5024B1B689847E3
:10356800002008BD180C0020034B044A186093780B
:1035780043F0020393707047180C0020D005002018
:1035880008B50649064821F00701C1F1005202F5C5
:10359800C032FDF73BF9002008BD00BF07730020CB
:1035A8001C0C00201F281FB5124B05D85A68114360
:1035B800596005B05DF804FB3F2803D85A6A1143E7
:1035C8005962F6E70C4B02930023CDE900330B490F
:1035D80003900122184605F0A1FD094909480A4A45
:1035E80040F20D1305F07BFB074840F20D1105F082
:1035F8006DFB00BF0004014066C3000820AC000852
:10360800E1CC000808B200087DC300081F281FB5D8
:10361800114B05D81A681143196005B05DF804FB11
:103628003F2803D81A6A11431962F6E70B4B029335
:103638000023CDE900330A4903900122184605F01A
:103648006DFD08490848094AAA2305F048FB0748C0
:10365800AA2105F03BFB00BF0004014066C3000837
:1036680020AC0008E1CC000808B200087DC30008BF
:103678001F281FB5124B6FEA010105D81A681140BF
:10368800196005B05DF804FB3F2803D81A6A114099
:103698001962F6E70B4B02930023CDE900330A4980
:1036A80003900122184605F039FD08490848094ADF
:1036B800B52305F014FB0748B52105F007FB00BF4B
:1036C8000004014066C3000820AC0008E1CC0008F3
:1036D80008B200087DC300081F281FB5134B6FEA06
:1036E800010105D85A681140596005B05DF804FB1E
:1036F8003F2803D85A6A11405962F6E70C4B0293E7
:103708000023CDE900330B4903900122184605F048
:1037180005FD094909480A4A4FF48C7305F0DFFA98
:1037280007484FF48C7105F0D1FA00BF000401403E
:1037380066C3000820AC0008E1CC000808B2000805
:103748007DC300081F281FB5114B05D8DA6811433F
:10375800D96005B05DF804FB3F2803D8DA6A114345
:10376800D962F6E70B4B02930023CDE900330A49EF
:1037780003900122184605F0D1FC08490848094A77
:10378800D62305F0ACFA0748D62105F09FFA00BF0A
:103798000004014066C3000820AC0008E1CC000822
:1037A80008B200087DC300081F281FB5114B05D8B3
:1037B8009A681143996005B05DF804FB3F2803D867
:1037C8009A6A11439962F6E70B4B02930023CDE9FD
:1037D80000330A4903900122184605F09FFC084966
:1037E8000848094AC02305F07AFA0748C02105F0BD
:1037F8006DFA00BF0004014066C3000820AC000851
:10380800E1CC000808B200087DC300081F281FB5D6
:10381800124B6FEA010105D89A681140996005B00A
:103828005DF804FB3F2803D89A6A11409962F6E7CD
:103838000B4B02930023CDE900330A490390012280
:10384800184605F06BFC08490848094ACB2305F0DF
:1038580046FA0748CB2105F039FA00BF00040140B9
:1038680066C3000820AC0008E1CC000808B20008D4
:103878007DC300081F281FB5124B6FEA010105D848
:10388800DA681140D96005B05DF804FB3F2803D819
:10389800DA6A1140D962F6E70B4B02930023CDE9AF
:1038A80000330A4903900122184605F037FC0849FD
:1038B8000848094AE12305F012FA0748E12105F012
:1038C80005FA00BF0004014066C3000820AC0008E8
:1038D800E1CC000808B200087DC3000810B586B026
:1038E800104C204606F094FC034658B90E4A009046
:1038F800CDE901020D49012205F010FC6FF012001C
:1039080006B010BD0A4A92E8030004AB83E803003E
:10391800A26812681AB1194620469047F0E76FF07E
:103928005700EDE7ACA60008BFC3000820AC0008AC
:10393800C8AC00081FB53F2800F01F034FF0010274
:1039480002FA03F30DD900240B4B0390029320468F
:10395800CDE900440949234605F0E0FB204604B0C0
:1039680010BD074A1F2894BF5269526B93430CBF7E
:1039780001200020F3E700BF66C3000820AC000860
:10398800000401401FB53F2800F01F034FF001025B
:1039980002FA03F30ED90B4B029300230390CDE9EF
:1039A80000331846084905F0B9FB6FF0150005B05B
:1039B8005DF804FB1F28054A02D853610020F6E78A
:1039C8005363FBE766C3000820AC0008000401400D
:1039D8007FB53F28164600F01F054FF00102044648
:1039E80002FA05F50DD9374B029300230390CDE970
:1039F80000331846344905F091FB6FF0150004B008
:103A080070BD032924D8DFE801F0020F131B2946F3
:103A1800FFF7FCFE29462046FFF72CFF032E44D86B
:103A2800DFE806F02C353E222946FFF7BDFEF1E718
:103A38002946FFF787FE29462046FFF7E7FEEDE710
:103A48002946FFF7B1FE29462046FFF77BFEE5E74A
:103A58001E4B029300230391CDE900331A4901223A
:103A6800184605F05BFBD9E729462046FFF734FEE8
:103A780029462046FFF7FCFD0020C0E729462046DE
:103A8800FFF72AFE29462046FFF7C0FDF4E729463E
:103A98002046FFF7EDFD29462046FFF783FDEBE7BB
:103AA80029462046FFF7B2FDF5E7094B02930023AC
:103AB800CDE90033044903960122184605F02EFB90
:103AC800DAE700BF66C3000820AC0008DEC30008C0
:103AD800FCC30008044B184400230133994200F842
:103AE800012BFADC704700BFFC0600202DE9F041ED
:103AF800104F054600264FF001086B78F4B2A34238
:103B080001D8BDE8F0812B781C442046FFF712FF4E
:103B180068B12046FFF736FF57F834303BB107EB62
:103B2800C40204F01F04516808FA04F098470136EB
:103B3800E3E700BF280C002008B5034630B1B0FA0F
:103B480080F2C2F11F02D2B20F2A09D909490A48E4
:103B58000A4AC22305F0C3F80848C22105F0B6F89E
:103B680007498856074A11680B431360BDE80840A7
:103B7800FFF7C0B980C4000808B200083EC40008B6
:103B8800FC06002000040140024A136823EA0003EF
:103B9800136070470004014008B5164B03291ED86E
:103BA800DFE801F0020B0E169A6822EA00029A601A
:103BB800DA6822EA0002DA6008BD9A680243F6E78A
:103BC800DA680243DA609A6822EA00029A60F3E748
:103BD8009A6802439A60DA681043D860ECE70649AD
:103BE8000648074AFD2305F07AF80548FD2105F047
:103BF8006DF800BF00040140E1CC000808B20008DD
:103C08003EC4000830B5B0B1B0FA80F3C3F11F0369
:103C1800DBB20B4850F833408C4204D100EBC305AB
:103C28006D68954205D044B940F8331000EBC300E5
:103C38004260002030BDFF23EBE76FF00F00F9E78B
:103C4800280C002060B1B0FA80F3C3F11F03DBB287
:103C5800044A002142F8331002EBC3025160704756
:103C6800FF23F5E7280C002000F00302043292003D
:103C78000F23934043EA900000F003030233064AFF
:103C880052F82320030C02EA104093FAA3F3B3FA84
:103C980083F3D840704700BF00000140024B18680A
:103CA800C0F38020704700BF0010024038B52D4B8C
:103CB80018680B88C3F30B030C2B0D46144624D845
:103CC80013B96FF0850031E0013B0B2BF9D801A245
:103CD80052F823F0293D0008573D00080D3D000823
:103CE8004F3D0008CB3C0008533D0008293D000823
:103CF800293D0008293D0008CB3C0008373D000855
:103D0800433D00084FF4FA400AE003F6B873C3F3E2
:103D18000B03182BD5D8144A22FA03F3DB07D0D5A6
:103D280020602B68B3F5805F14D2002038BD00F006
:103D3800BBF814235843C008F2E700F0B5F8142381
:103D480058438008ECE70948EAE70020E8E74FF421
:103D58000040E5E7C3F313330133B0FBF3F0206011
:103D6800E3E700BFEC060020110111010024F40074
:103D7800F8B5494F494C00F0ADF8384605F0D8FA87
:103D880002F048F8A368464AC3F303131578D35CD6
:103D980047FA05F520FA03F6AE4202D2284602F0A9
:103DA80087F8FFF77BFF012807D0236843F4807367
:103DB8002360FFF773FF0128FBD1D4F8943043F058
:103DC8000103C4F89430D4F894309807FBD5FDF774
:103DD8001FF8D4F8903043F00103C4F89030D4F8B9
:103DE80090309907FBD5FDF767F8A36803F00C033B
:103DF8000C2B1AD1FFF752FF012807D0236843F490
:103E080080732360FFF74AFF0128FBD1A36823F0E2
:103E1800030343F00103A360A36803F00C03042B1E
:103E2800FAD1A36823F0F003A360236823F080731A
:103E3800236023689A01FCD4E36843F4C003E36079
:103E4800E36843F48013E36000F032F8236843F03A
:103E58008073236023689B01FCD5A36823F0F003DB
:103E6800A360A36843F00303A360A36803F00C03F3
:103E78000C2BFAD1AE4202D3284602F019F8094BAE
:103E88001F60A36823F4E063A360A36823F460536E
:103E9800A3600020F8BD00BF00B4C40400100240B5
:103EA80098CC0008EC060020004870470024F40075
:103EB800054B0649DA681140054A0A43DA60DA68B0
:103EC80042F08072DA607047001002408C80FFF97F
:103ED80002140002064B9A6D42F080529A659B6D5F
:103EE80082B003F080530193019B02B0704700BF7A
:103EF8000010024008B5074806F08AF938B10648AC
:103F0800FFF732FB0448FCF72BFF002008BD6FF0D9
:103F18001200FBE70CA80008253F000838B50D4D36
:103F280004462846FEF798F8002810DB0A2C04D12E
:103F3800AB680D215B6828469847AB6805485B6805
:103F4800E1B29847034804220023FEF755FA2046B9
:103F580038BD00BF0CA8000800487047F8AD00083D
:103F680010B50446006901214FF0FF3206F073F9DD
:103F780020460249BDE8104004F0E8BFC5400008EB
:103F88002DE9F04743680F1ED3F8209086B0064607
:103F98001546C0F28580BB184B4500F2818047EA80
:103FA8000204C4F30B04002C7AD1FEF755F800285C
:103FB80079DB304605F019FA4FF0FF3A002D63D04F
:103FC800002C61D1CDE900442346802206213046E9
:103FD80005F019FA0446002856D14D4512D1CDE90D
:103FE800000003468022C721304605F00CFA002560
:103FF8000446002C48D1C8220023304605F064FA54
:104008000446DBE7294B02468046597881B10AFA13
:1040180001F037EA00000BD101208840A84207D8F8
:10402800B8F1000F1ED098F80100884238BF9846B2
:104038000132042A03F10203E7D1B8F1000F13D0CB
:10404800002398F800108122CDE9003330463B4622
:1040580005F0D9F998F801200123934004461F443C
:10406800ED1AC6E79846E3E7114B0393114B029309
:104078000823CDE90083CDE904570F49434640465C
:1040880005F0A3F96FF01504304605F093F92822DE
:1040980000233046FEF7B0F9204606B0BDE8F087A9
:1040A8006FF01504F8E76FF00404F5E713C600088D
:1040B800EDC50008A9C4000888AC00082DE9F04146
:1040C80004468CB0032900F24081DFE811F01C019E
:1040D800090004001300002528460CB0BDE8F08153
:1040E80005F083F9204605F09FFA0546204605F0BD
:1040F80061F9F1E74668306806F08AF8E8B1337E7E
:10410800B3B9204605F071F9204605F08DFA00286C
:1041180016DA8F4B029300230390CDE9003318463B
:104128008C49012205F051F9204605F043F904E0D5
:10413800F06806F06DF80028E3D16FF01205CBE7C0
:10414800204605F0B0F9051E1EDDE9070CD420460F
:1041580005F030F92046FDF77FFF002825DA6FF0DB
:1041680004057D4B039516E07C4B0293002318460B
:10417800CDE900337749022205F027F90022002310
:10418800204605F0A1F90546204605F013F9002D53
:10419800E0DA734B039502930023CDE900336D49B0
:1041A8000122184605F011F9C7E7204605F01DF968
:1041B8004FF0030800230BAF1A469F21CDF8048067
:1041C8000097204605F01FF90546204605F0F2F84D
:1041D800282200232046FEF70FF9002DC1D13846CA
:1041E800424606F12C0106F077F90746F0B196F839
:1041F8002E30089396F82D30079396F82C300693B6
:104208009DF82E3005939DF82D3004939DF82C30A1
:104218000393544B0095CDE9015328462B464D494D
:10422800012205F0D2F86FF0150555E796F8303001
:10423800ABB3204605F0D9F8204605F034F9051E41
:1042480028DD96F83030802225EA0305CDE900778D
:104258003B46062120468DF82B5005F0D4F805463C
:1042680028B1204605F0A6F83F4B039593E70121B6
:104278000DF12B030093019103468022204605F09F
:10428800C2F805460028ECD100220023204605F09C
:104298001BF90546204605F08DF8002DE4D196F867
:1042A8002F5085B3314B0393314B029300260823DB
:1042B800CDE900632749049533460422304605F0CA
:1042C80084F8FF2D1FD015F00B0F3BD0204605F0CA
:1042D8008CF815F008031DD00123802201930DF1FD
:1042E8002B0300938DF82B2033461721204605F029
:1042F8008AF8054600BB2269137D43F00103137554
:10430800204605F057F8204605F06FF8204605F0DE
:10431800BEF9EAE6AA0705D40023CDE900338022D6
:10432800B721E3E7CDE9003380220621204605F0D6
:104338006AF805460028EFD0204605F03BF80D4BFB
:10434800039528E76FF08505F9E76FF05705C3E691
:10435800C6C4000888AC000824C50008DEC40008EC
:10436800FBC400083DC500087BC50008D4C500088B
:1043780090C50008B3C500080048704700AE0008A3
:10438800044BB3F8E0359B020B6000234B601846E2
:10439800704700BF0070FF1F70B51C4686B0002331
:1043A800164622460D4605F0A7F9034668B9134A92
:1043B8000090CDE90102CDE903541149012205F02D
:1043C80084F96FF0150006B070BDA4B10D4B0393CE
:1043D8000D4B029308220023CDE90032084904223C
:1043E8001846CDE9045405F070F9224605F100613C
:1043F800304606F05BF80020E5E700BF1BC6000862
:1044080030AC0008E9C7000845C600082DE9F041AE
:10441800054606698AB0334C204605F0F9FE034686
:1044280060B9314A0090CDE901023049012205F016
:104438004CF96FF012000AB0BDE8F081A3681B6860
:10444800311D63B92A4B029300231846CDE9003386
:104458002649012205F039F96FF00400EBE7204600
:10446800984704460028EDD128690C3001221146EE
:1044780005F0F1FE08264FF00063CDE904361D4B28
:104488001D4F1A490397CDE90163042223462046AC
:10449800009405F01AF905F04BF90028CBDB284603
:1044A80009AA08A900F0FAF9144DDFF84080099B21
:1044B8009C4201D30020BEE7089B03EBC40253F8DB
:1044C8003430069353680196CDE904430023CDE9BF
:1044D8000257009304224146184605F0F6F80134C5
:1044E800E5E700BFACA6000864C6000830AC0008C9
:1044F80083C600089AC60008D8C70008BFC60008C7
:10450800F0B5064689B0C822002306A805F05FFF6B
:1045180033691B681A6944F2FA373A40DDE90645FF
:1045280023D01B691B493B4004931B4B03931B4B34
:10453800029308220023CDE900321846042205F030
:10454800C4F833691A6813693B4013616FF00400BB
:1045580009B0F0BD22462B4606A805F05DFFDDE94F
:10456800063213430CBF0122002233691B68186905
:1045780010F48030ECD0002AECD032230393084B9F
:1045880002930023CDE9003302490122184605F0C1
:104598009CF8DBE730AC000832C80008E1C6000828
:1045A800F5C600087FB5036906461D6851B1FFF7D7
:1045B800A7FF0446D0B130690C3001F053FF204604
:1045C80004B070BD6B69002B04DA114BAB6003F1CA
:1045D8008833AB600F4B03930F4B029308220023E1
:1045E800CDE900320D49042218460DE06B690B49EC
:1045F80043F000436B61074B0393094B0293082375
:10460800CDE900030422034605F05FF80024D6E74D
:10461800230167451EC8000825C7000830AC0008FC
:1046280009C70008F0B5012387B005460F461646AE
:1046380005F062F8034670B9294A2A490090CDE985
:104648000102CDE90376012205F03FF86FF0150469
:10465800204607B0F0BD002E3FD0286905F045F888
:10466800214B0393214B029300240823CDE90043F7
:10467800204623461B490422CDE9047605F025F897
:1046880021462846FFF78EFF044628B932463946A8
:10469800284605F04FF804462B691B681A6852052E
:1046A8000FD51A6822F480621A601A6842F48052A0
:1046B8001A601A6822F480521A601A6842F48062FA
:1046C8001A6001212846FFF76DFF002C08BF044639
:1046D80028690C3001F0C6FEBAE73446B8E700BFD7
:1046E80042C7000830AC00080CC800086DC70008B5
:1046F8002DE9F0411D4686B0012390462A4606461C
:104708000F4604F0F9FF034678B9224A224900907F
:10471800CDE90102CDE90375012204F0D6FF6FF05F
:104728001504204606B0BDE8F08185B3306904F071
:10473800DCFF1A4B03931A4B029300240823CDE99C
:1047480000432046234614490422CDE9047504F0A9
:10475800BCFF21463046FFF725FF044640B1012142
:104768003046FFF71FFF30690C3001F07BFED8E7B9
:104778002B4642463946304600F026F801210446C9
:104788003046FFF70FFF002C08BF0446EBE72C4626
:10479800C7E700BF8DC7000830AC0008FAC700089B
:1047A800B8C700087FB50BAB05930393054B02937D
:1047B8000023CDE9003301221846FCF7EFFD07B0CE
:1047C8005DF804FB71C800082DE9F04F8046002011
:1047D80087B00E4691469A460746BA452CD927F027
:1047E80007034B44FA10D3F804B0D8F8103059F83E
:1047F80032201C6805926369002B1BDB4046FFF7DB
:104808007FFE002818DB06F10063059A196801315C
:1048180002D15968013112D052EA0B010FD01D4B59
:1048280002930023CDE900331B4903960122184661
:10483800FFF7B8FF6FF0040007B0BDE8F08F2568F8
:1048480015F480651EBF216821F4806121606169CB
:1048580041F00101616161691A604046C3F804B022
:1048680018BF0125FFF74CFE636923F0010363615C
:104878005DB1236843F480532360236823F4805395
:104888002360236843F4806323600028D4DB08375F
:104898000836A2E771C8000838AC000830B50B48E4
:1048A80003687BB90A4BD3F8E0354FF6FF749DB225
:1048B800A54214BFC3F34E034FF4007303604FF4D3
:1048C8000063436001230860136030BDC00C002002
:1048D8000070FF1F10B5036961B92049204A2148BB
:1048E8004F2304F0FCF9204804F0F9F94F211C4843
:1048F80004F0ECF9486850B91C49194A1948502382
:1049080004F0EDF91A4804F0EAF95021EFE7986845
:10491800F8B1884219D1DC6808689860A14200D1D2
:10492800D860002008602AB19A680A60DA6899603D
:1049380002B9D960002010E0814206D108682060E1
:10494800D8688142EDD1DC60EBE7044600680028B6
:10495800F2D1002AE8D16FF0150010BDD7C80008C1
:104968009BC8000808B20008E0C80008EFC80008A3
:1049780001C900082DE9F843D0F80480D0F8109058
:10498800D8F8080017460D461E4604F020FCB7F577
:10499800001F044616D12846D8F80840FFF764F9E6
:1049A80084420CD1294604F012FC0446FFF7ECF8C7
:1049B8002046FFF747F900212046FFF7EDF80020D1
:1049C800BDE8F883B7F5800F20D0B6F1806F19D015
:1049D800B6F1C06F18D0B6F1007F1AD1022610497F
:1049E8004A462046FFF70EF9B0B9D8F8081028460D
:1049F80004F0F2FB20463146FFF7CEF82046FFF7D9
:104A08009BF8DCE70126EAE70326E8E76FF0850074
:104A1800D6E76FF01500D3E76FF00F00D0E700BFBF
:104A2800654A000810B5036904465860084805F04F
:104A3800EFFB50B1074A0849536843F400735360C9
:104A48002046BDE8104004F081BA6FF0120010BD96
:104A5800ACA6000800700040BD4A000870B5D1E956
:104A68000161054609B10C6801B970BD8A682A4020
:104A780010D04B6863B90B490B4A0C48742304F0F7
:104A88002EF90B4804F02BF90748742104F01EF99D
:104A9800304698471CB1236821461C46E4E7234664
:104AA800FAE700BF18C900089BC8000808B2000848
:104AB80001C90008012907D00DD9023901298CBF85
:104AC8006FF08500002070474168074883681B68BD
:104AD8000C3133B118474168034883680C315B686F
:104AE800F7E76FF057007047ACA600082DE9F047CC
:104AF800264F044600EBC1060025B44201D1002030
:104B080014E02068C30600F01F0811D4656845F05A
:104B18002005C0F3481AC0F34420192832D857F8A2
:104B28002090B9F1000F1CD16FF01200BDE8F0879A
:104B3800B8F1100F13D0B8F1110F01D16568E8E78B
:104B4800B8F1000FE5D112491248134A40F2571341
:104B580004F0C5F8104840F2571104F0B7F83025B2
:104B6800D7E7484605F054FB0028DDD043462A46DF
:104B78000AF00F01484604F070FF002804F1080409
:104B8800BBDAD3E76FF01500D0E700BFA8AE000886
:104B9800C7C9000808B2000894C90008F0B54368FE
:104BA80002691F6889B006460D46002930D0106892
:104BB800D9688368DB6883B107AA9847041E0FDAAF
:104BC800204B02930023CDE900331F4901221846E8
:104BD80005F011F8204609B0F0BD6FF05704EFE773
:104BE8003B6823F400433B60079B03EB5503B3FB8F
:104BF800F5F30F2B0FD8049533680393134B0293E7
:104C08000023CDE9003310490122184604F0F3FFD0
:104C18006FF01504DEE79BB2FB60FB680F2B0ED824
:104C28000B490C4A0C484FF4897304F058F80B48A8
:104C380004F055F807484FF4897104F047F8002448
:104C4800C8E700BFF0C90008B0AC00081ECA0008D9
:104C580064CA000835CA000808B2000886CA0008F5
:104C6800F8B50C46036941685D682379012B16D0B5
:104C78009F1E7E427E41B6026279022A9CBF474F40
:104C880037F81270A27988BF4FF40057022A09D06A
:104C9800042A30D0003B18BF01231B0306E04FF461
:104CA800C066E9E7B3FA83F35B091B07E279096891
:104CB800012A14BF4FF0000C4FF4407CA5421DD1CF
:104CC8000A6822F0805222F4B05232431A430A6032
:104CD8004B6823F440533B434B6043681A6893681E
:104CE80023F4407343EA0C0393602968FFF756FFE7
:104CF80000EAE070F8BD4FF48053D7E7D1F800E040
:104D08000EF4C06E76451FBFD1F800E02EF4C06ED9
:104D18004EEA06060E6041680E68716801F440515B
:104D28008F421FBF716821F4405139437160416857
:104D38000E68316801F010218B421FBF316821F0E5
:104D480010210B433360436819688B6803F4407380
:104D58009C451FBF8B6823F4407343EA0C038B60A8
:104D680043681B689968490405D5032A09D09A68DD
:104D780022F4804204E0032A03D19A6842F4804274
:104D88009A6021682B68994205D0FFF707FF002831
:104D9800B0DB23682B600020ACE700BF98B10008A7
:104DA800F0B5456803692C685F68236823F0010340
:104DB8002360064685B0686805F02AFA034658B9A4
:104DC800554A0090CDE901025449012204F013FF2D
:104DD8006FF0120005B0F0BDD5E901018368DB680A
:104DE80003B1984754E8003F43F00C0344E800320D
:104DF800002AF7D139463046FFF732FF00283DDB5D
:104E08002B7D1BB1A36843F00803A3606B7D1BB126
:104E1800636843F400436360AB7D1BB1636843F48C
:104E280080336360EB7D1BB1636843F400336360D8
:104E38002B7E002B3FD03A4B9C4222D0A3F57443E3
:104E48009C421ED003F580639C421AD003F5806310
:104E58009C4216D003F580639C4212D003F5405360
:104E68009C420ED0336803932E4B02930023CDE966
:104E780000332A490122184604F0BDFE6FF01500E0
:104E8800A8E773681A68936843F4804393602368BB
:104E98006A7E23F0787343EA425323602368AA7E2C
:104EA80023F4F81343EA02432360EB7E1BB1A368A3
:104EB80043F40043A36095F8283003B3A36843F490
:104EC8004013A36004F1080353E8003F43F4800350
:104ED80004F1080141E80032002AF3D14FF48013AD
:104EE800236254E8003F43F0020344E80032002AFA
:104EF800F7D1E86A411C02D01146FEF769FD236824
:104F080043F001032360E3699A02FCD5E3695B027D
:104F1800FCD500205EE700BF9ACA0008B0AC0008C4
:104F280000380140B5CA00087FB5046946680546DF
:104F38001C48206005F06CF9034660B91A4A1B4901
:104F48000090CDE90102012204F055FE6FF0120431
:104F5800204604B070BD2068F16883681B6893B16F
:104F68009847044688B9306A002104F054FE041EAC
:104F7800EEDB2846FFF714FF041EE9DB736A2846B8
:104F880098470024E4E76FF05704094B0293002385
:104F9800CDE9003305490122184604F02CFE002C07
:104FA800D6DBE0E7ACA6000864C60008B0AC000891
:104FB800D7CA0008F8B5436891F805E01C6803698A
:104FC800024608795D688B7901280E4613D1BEF137
:104FD800020F61D9022B1F464FF4C0614FF4005CE9
:104FE80072D0042B6BD0002873D0C31E012B68D855
:104FF8006FF08500F8BD02280AD1BEF1020F57D91B
:10500800022B1F464FF480610BD04FF4005CE8E799
:10501800BEF1020F4FD9022B1F464ED1002863D094
:105028000021C31E012BE3D9002002270323734567
:10503800DED104F07DFDB842DAD1F379C3B1012B9A
:105048005AD12F4B9C4213D0A3F574439C420FD0E6
:1050580003F580639C420BD003F580639C4207D024
:1050680003F580639C4203D003F540539C42BFD1B3
:10507800236823F00103236031461046FFF7F0FD53
:105088000028B5DB236843F00103236096E803009A
:1050980085E803000020ADE74FF4C061194F022BEB
:1050A80037F81EC01F469CD170B94FF0805010E0F1
:1050B8004FF48061F2E70021F0E70021A5E700281E
:1050C80096D14FF4805004E0C31E012B90D90227DB
:1050D8000020BCF5805F0BD0BCF5405F0AD0BCF166
:1050E800000FA3D10123A2E701464FF080509DE7AE
:1050F80000239CE702239AE7032BA2D078E700BF9E
:105108000038014098B10008F0B5064645680769BF
:1051180085B059B301294BD1286A002104F07BFDE1
:10512800041E1ADB3868E96883681B686BB1984706
:10513800041E0DDA204B02930023CDE900331F49EA
:105148000122184604F057FD07E06FF05704F1E715
:105158002B681B68DC0703D50024204605B0F0BD8A
:105168003046FFF71DFE00EAE074F6E72B68DA69BF
:10517800D003FCD4DA695106FCD5DA695202FCD5B1
:1051880008221A623868E96883685B6823B198471F
:10519800041E04DA0A4BCEE76FF05704FAE7286AD0
:1051A800012104F038FD041ED6DAA31CD4D0D4E7BC
:1051B8006FF08504D1E700BFD7CA0008B0AC00087B
:1051C800F7CA000810B50446806810F4B87088B0B3
:1051D80017D00D4B03930D4B02930023CDE90033F9
:1051E80004900B491846012204F08EFEA3685B0662
:1051F80005D5E3680793079BA3680793079B6FF0A0
:10520800040008B010BD00BF62CC000853CB0008F2
:1052180090AC000810B503460A460068197904697D
:10522800012303FA01F143681B6819420ED10E49A4
:105238000E4A0F4840F2A26303F051FD0D4803F0F7
:105248004EFD0A4840F2A26103F040FD236819426E
:1052580018BF82F0010222B18368DB68BDE8104004
:10526800184783681B69F9E795B200089EB10008E2
:1052780008B20008D3B200082DE9F04305460669D4
:10528800476887B0032903D8DFE801F09808AFAC76
:105298006FF08504204607B0BDE8F083002138464A
:1052A80004F042FE041EF5DB5148396983681B6827
:1052B8006BB19847044668B14E4B02930023CDE981
:1052C80000334D490122184604F01EFEE2E76FF054
:1052D8005704F1E7B5680127D6E9023203EBC203A8
:1052E8009D42D7D2286804F093FF034678B92A79FB
:1052F80004922A68404912680392404A0090CDE916
:105308000102012204F000FE6FF01204C2E72868CF
:105318002979EB8803F03002302AD0E901C9D0F8A6
:1053280010800ED13649374A374840F2F73303F038
:10533800D6FC364803F0D3FC40F2F731314803F08D
:10534800C5FC03F00602042A09D131492D4A2E482A
:1053580040F2FE3303F0C3FC40F2FE31EEE7DCF826
:1053680000C0DA0707FA01FE54BF43F4B01383F410
:10537800D0131EEA0C0F23F480120CD12549214AC0
:10538800214840F2114303F0AAFC234803F0A7FC8C
:1053980040F21141D2E7D8F800C0DB074CBF4EEA13
:1053A8000C032CEA0E03C8F80030D9F800309847EF
:1053B800002801DB08358FE704466BE70C4839699C
:1053C80083685B6823B19847044620B1134B74E7A0
:1053D8006FF05704FAE76868012107B0BDE8F043A9
:1053E80004F0A2BD01213846F7E7002452E700BFC8
:1053F800ACA600085ECB000890AC000879CB00088A
:10540800CFB100089EB1000808B2000825B2000814
:1054180062B2000895B20008D3B200089DCB00081C
:105428007FB50446056946680E4804F0F1FE034658
:1054380060B1B36820469847284604F08AFD0A49B7
:10544800204604B0BDE8704003F080BD074A0090D4
:10545800CDE901020649012204F056FD6FF0120061
:1054680004B070BDACA600088152000864C60008EC
:1054780090AC00082DE9F04F804605698BB00E46C8
:105488001F46924612B9002B00F00682B3889C048E
:105498003AD44FF0FF324FF0FF3305F1100001F01E
:1054A8005FF86E60D8F8103093F854204AB901229A
:1054B800022083F85420FF21FCF72CFC4046FCF71F
:1054C800CBFDD8F810B0D8F80490DBF80030D9F844
:1054D8000040B2889E4240F0A680100540F18081CD
:1054E800236823F44443BAF1000F14D043F4404333
:1054F8002360B08804F077FC0646DAF800306B6366
:1055080093B1DAF804300FE0AB69002BC1D16B68B6
:105518009E42BED1C6E743F400432360B08804F03E
:1055280062FC064600236B63AB6305F14802334611
:1055380005F1380105F1340004F032FC6864002FED
:1055480040F06881EF6300232B6405F15002334675
:1055580005F1400105F13C0004F022FC0023E86459
:105568002B63D8F804302668D3F800A0DAF80030A6
:1055780043F04003CAF80030D8F810B0DBF8000058
:1055880006F4444650B1037D43B101210830FFF7CA
:1055980041FEDBF80030186904F02CFEDAF804301C
:1055A80043F02003CAF804302FB1DAF8043043F08E
:1055B8004003CAF80430DAF8043043F08003CAF82C
:1055C800043005F120034FF4FA5B0027079300230A
:1055D800A86B1946814240F024810021D5F840C0CB
:1055E8000846604540F024818B4238BF0B460BFBD0
:1055F80003F22B681B68B2FBF3F2C832930F9200D8
:10560800079800F0ADFF002800F01981A34BA449CA
:105618000097CDE9017300230122184604F074FCB9
:105628006FF0730A0EE0D9F814100229C2F345137B
:1056380026D0032927D0012957D1043B1C2B26D972
:105648006FF0850AD8F8103093F8541049B100214A
:1056580083F854104046FCF7A5FCFF210220FCF714
:10566800C3FB2B6813B19B889B0405D400236B6094
:1056780005F1100000F0F6FE50460BB0BDE8F08FC3
:10568800043B0C2BDBE7082B01D0102BD8D1636827
:10569800844811044CBF43F0100323F010036360E7
:1056A8008368D9F81010DB6853B309AA9847002813
:1056B80026DB099B002230681146013223FA02FCDE
:1056C80084452AD82368784A23F040032360236856
:1056D80052F8212023F0380313432360B3889A0734
:1056E8002FD4236823F002032EE0704B029300238B
:1056F800CDE900336A490122184604F005FC9FE70A
:105708006B4B02930023CDE900336549012218460B
:1057180004F0FAFB6FF0040A94E7082ACBD11A0ABE
:105728005B08CDE90303634B029300230592CDE99F
:1057380000335B490122184604F0E6FB6FF0150AB6
:1057480080E7236843F002032360B38813F0040F53
:10575800236814BF43F0010323F001032360B388D7
:1057680013F4006F236823F4444304D0BAF1000F04
:105778003FD043F440432360B38813F0100F2368ED
:1057880014BF43F0800323F080032360236823F4CD
:1057980000532360337D7BB3236843F40073236095
:1057A800636823F004036360B388434913F0010F6F
:1057B800236814BF23F4827343F482732360B2888E
:1057C8006368C2F34512043A23F4706351F8222047
:1057D80013436360636843F480536360CBF80060ED
:1057E800B08804F000FB0646BAF1000F7FF485AEDE
:1057F80098E643F40043BEE7B38813F0010F23682B
:1058080023F40073CBD143F480232360636843F00F
:105818000403C8E73B68EB63002B3FF494AE7B6856
:1058280092E66A6B02EBC102013152681344D1E679
:10583800EA6B02EBC002013052681144D1E6D5F898
:1058480030A0BAF1000F7FF4FDAEB6F5404F1AD183
:10585800AB6CABB92B6D9BB1D9F80030196821F44A
:10586800444141F400411960196841F04001196050
:10587800596841F020015960596841F04001596068
:10588800266806F44446AB6C002B7FF4A0AE2B6D63
:10589800002B7FF49CAED5E69A46EDE60DCC0008C9
:1058A80090AC0008ACA600081CB00008B9CB0008F2
:1058B800E1CB000833CC0008ECB00008044BD869F1
:1058C80080B2D969024688B28242FAD1704700BFD5
:1058D800007C00400B4B0C4918600B7883B178B101
:1058E8000A4A93699BB298420AD000230B70536806
:1058F80043F01003536093691B0C1B04034393612B
:10590800704700BF6C0D00200C070020007C004091
:1059180038B5494C204604F07BFC002800F088800C
:10592800A5682B6813B96FF0040038BD43492046B9
:1059380098470028F7DBAB69002BF4D040490022D8
:10594800204698470028EEDBEB68002BEBD03D4A59
:105958003B49204698470028E5DB3B488368DB68DD
:1059680013B140F21F719847364B1B68B3F5FA4FD5
:105978005BD0B3F5004FD6D14FF6FF73334D344C9F
:105988002B60002201214120FDF7C2FA4120FDF7DA
:10599800B1FAE36823F00103E360E368012223F42A
:1059A800606392FAA2F2B2FA82F243EA4223E36017
:1059B800E36823F40013E360E36823F48003E360FF
:1059C800E36823F40003E360E36823F40023E3605F
:1059D800E36823F4C023E360A36823F00103A36012
:1059E800636843F001036360A36843F00203A360A4
:1059F800636843F002036360164B01221A70A368C0
:105A080043F01003A360636843F0100363602369E5
:105A1800134323612868FFF75DFF236923F006031A
:105A280043F00403236100207FE74FF6FF13A5E747
:105A38006FF0120079E700BFACA6000820B100089B
:105A480028B10008E8060020CCA60008740D002044
:105A5800007C00400C070020044B186810F002007E
:105A68001CBF9868C0F34000704700BF007C00402E
:105A780010B5FFF7F1FF40B1084B9A6992B2541C78
:105A8800FFF71CFF0444204610BDFFF717FF04462C
:105A9800FFF7E2FF0028ECD1F5E700BF007C0040EB
:105AA80038B5344B9C691A68D106A4B213D59A68E4
:105AB800D20610D55A6842F010025A602E4A116870
:105AC8002E4A29B3A14223D0002010709A69120CE3
