:1000000000690020B92C00003DA70000A52C0000CD
:10001000A52C0000A52C0000A52C0000A52C00009C
:10002000000000000000000000000000852D00001E
:10003000A52C0000000000001D2D0000A52C0000D4
:10004000652F0000652F0000652F0000652F000060
:10005000652F0000652F0000652F0000652F000050
:10006000652F0000652F0000652F0000652F000040
:10007000652F0000652F0000652F0000652F000030
:10047C0053B94AB9002908BF00281CBF4FF0FF31FF
:10048C004FF0FF3000F00CB8ADF1080C6DE904CE64
:10049C0000F010F8DDF804E0DDE9022304B0704749
:1004AC00704700BF034613F8012B002AFBD1181A22
:1004BC00013870472DE9F04786468C460846089E61
:1004CC00154674461946002B40F0C1808542B2FA9D
:1004DC0082F245D94AB1C2F1200300FA02FC9540E0
:1004EC0094402EFA03F343EA0C0C4FEA154EA8B2D3
:1004FC00230CBCFBFEF80EFB18CC08FB00F943EAFE
:10050C000C43994528D9EB1808F1FF3704D29945CB
:10051C0002D9A8F102072B44A3EB0903A4B2B3FB45
:10052C00FEFC0EFB1C330CFB00F044EA0344A0421F
:10053C0014D92C190CF1FF3304D2A04202D9ACF11E
:10054C0002032C44241A43EA07401EB1D440002372
:10055C0034607360BDE8F0874746DDE76346F1E73A
:10056C0092BB431B01214FEA154EAFB2200CB3FBDB
:10057C00FEFC0EFB1C330CFB07F840EA03439845CA
:10058C0061D9EB180CF1FF3004D2984502D9ACF1CB
:10059C0002002B44A3EB0803A4B2B3FBFEFC0EFB3E
:1005AC001C330CFB07F744EA0344A7424DD92C1922
:1005BC000CF1FF3304D2A74202D9ACF102032C4454
:1005CC00E41B43EA0040C0E7C2F12003954094408D
:1005DC0020FA03F12EFA03F34FEA154E9040AFB216
:1005EC000343B1FBFEFC0EFB1C10190C0CFB07F8B3
:1005FC0041EA0041884522D969180CF1FF3004D238
:10060C00884502D9ACF102002944A1EB08019BB248
:10061C00B1FBFEFC0EFB1C110CFB07F743EA01437C
:10062C009F420ED9EB180CF1FF3104D29F4202D934
:10063C00ACF102012B44DB1B41EA004193E760461D
:10064C00E3E76146F7E76046A4E76346B8E7834211
:10065C0006D916B9002108467CE7C6E900E0F9E79F
:10066C00B3FA83F78FB9834201D3724508D8BEEB36
:10067C00020460EB030301209C461EB9002169E7CC
:10068C003846FAE7C6E9004CF8E7C7F1200CBB4046
:10069C000EFA07F522FA0CF42EFA0CF1BA401C43B0
:1006AC0020FA0CF3B8404FEA144901431FFA84FEB8
:1006BC00B3FBF9F809FB18300B0C08FB0EFA43EAF4
:1006CC0000439A4540D9E31808F1FF3004D29A450B
:1006DC0002D9A8F102002344A3EB0A0389B2B3FBAD
:1006EC00F9F809FB183308FB0EFE41EA03418E456D
:1006FC002CD9611808F1FF3304D28E4502D9A8F128
:10070C000203214443EA0040A1EB0E01A0FB029836
:10071C004145CE46434602D306D14D4504D201385D
:10072C00B9EB020E68EB0403002EA7D0B5EB0E025A
:10073C0061EB030101FA0CFC22FA07F3F9404CEAD5
:10074C000303C6E9003199E74046C5E74346D9E7BC
:10075C0003462DE9F04119790068DB8803F030027B
:10076C00302A0669D0E901470ED1214940F2F7330E
:10077C00204A214809F005FE204809F002FE40F20B
:10078C00F7311C4809F0F4FD03F00602042A09D1E4
:10079C001B4940F2FE33174A174809F0F2FD40F2AC
:1007AC00FE31EEE701252468DA0705FA01F554BF9E
:1007BC0043F4B01383F4D013254223F480120CD1EC
:1007CC00104940F211430B4A0B4809F0DAFD0E4870
:1007DC0009F0D7FD40F21141D3E73468DB074CBF79
:1007EC002C43AC4334603B68BDE8F041184700BF74
:1007FC0069C4000038C40000A2C40000BFC40000DB
:10080C00FCC400002FC500006DC50000034610B5E8
:10081C000A4619790123006803FA01F14368046957
:10082C001B6819420ED10E4940F2A2630D4A0E48C4
:10083C0009F0A7FD0D4809F0A4FD40F2A26109489A
:10084C0009F096FD2368194218BF82F0010222B10B
:10085C008368DB68BDE81040184783681B69F9E7BB
:10086C002FC5000038C40000A2C400006DC50000F4
:10087C001FB5104809F00CFD04460E4809F008FDA0
:10088C005CB150B100210C48FFF7C0FF01210B48AF
:10089C0004B0BDE81040FFF7B9BF094B0122029329
:1008AC00002308491846CDE9003309F0E2FC04B0F6
:1008BC0010BD00BF44B6000010C1000008C100000C
:1008CC007FC500007CC000001FB5104809F0E0FC9B
:1008DC0004460E4809F0DCFC5CB150B101210C4817
:1008EC00FFF794FF01210B4804B0BDE81040FFF75F
:1008FC008DBF094B01220293002308491846CDE90C
:10090C00003309F0B6FC04B010BD00BF44B60000C3
:10091C0010C1000008C100007FC500007CC00000B1
:10092C002DE9FF41604809F0B3FC034650B95F4A1A
:10093C00CDE901325E490122009309F09AFC04B022
:10094C00BDE8F081584809F0A3FC034608B9594AA0
:10095C00EEE7594E306809F09BFC034608B9574A3C
:10096C00E6E75748FFF7F4FE044658B1554B0390A1
:10097C0002930023CDE90033012218464C4909F0BB
:10098C0078FCDCE75048FFF7E3FE054630B14F4BEF
:10099C000390CDE9014300942346EDE73046FFF781
:1009AC00D7FE044630B14A4B0390CDE90153009574
:1009BC002B46E1E7FFF788FF464F3D4E464D00239F
:1009CC00032231461846CDE90274CDE9003309F013
:1009DC0050FC284601340AF047FC0A2CEFD10225C2
:1009EC00DFF8F880324F344E002403222346394678
:1009FC002046CDE90044CDF8088009F03AFC0121ED
:100A0C003046FFF703FF36480AF02EFC354B032225
:100A1C0039462046CDE901430094234609F029FCD0
:100A2C0021463046FFF7F2FE2F480AF01DFC012D3F
:100A3C0038D12E4809F08FFC0A25FFF719FFDFF893
:100A4C00B0801B4F1C4E00240322234639462046FF
:100A5C00CDE90044CDF8088009F00BFC01213046AB
:100A6C00FFF7D4FE002140F6354008F09FFA214BE9
:100A7C00032239462046CDE901430094234609F070
:100A8C00F8FB21463046FFF7C1FE46F6DD5000214B
:100A9C0008F08CFA013DD6D1002147F6122008F05F
:100AAC0085FAF9E701259FE744B600009EC50000D2
:100ABC007CC00000C3C5000000030020E9C5000095
:100ACC0010C1000004C6000008C100002CC60000C4
:100ADC0055C6000079C60000400D030085C6000015
:100AEC00A08601008FC60000A0BB0D0099C60000B7
:100AFC00B1C60000BCC60000B2F5802F2DE9F04154
:100B0C000ED33C4940F213233B4A3C4809F039FCD4
:100B1C003B4809F036FC40F21321374809F028FC19
:100B2C00042A0CD8374940F21A23334A334809F0C7
:100B3C0028FC354809F025FC40F21A21EDE7043A6F
:100B4C00CD1D8E1825F0070526F00706761B172EEF
:100B5C004FEAD6070CD82D4940F22323264A2748C2
:100B6C0009F00FFC284809F00CFC40F22321D4E7D3
:100B7C00B7FA87F44FF00008C4F12002C4F1240442
:100B8C00A4000734E408631CBB420560AF60C5F8E1
:100B9C000C800CD91E494FF40E73174A174809F0F4
:100BAC00F0FB194809F0EDFB4FF40E71B5E7414627
:100BBC00920005F110000AF070FC630043F0010391
:100BCC006B803B1B05EBC4025900A5F800805180DB
:100BDC00AA1925F83440A2F80280AB5305EBC703E1
:100BEC005A88214642F001025A802846BDE8F0415D
:100BFC0009F055BB9AC70000CCC60000A2C4000087
:100C0C00B0C70000C7C70000E8C7000001C800005B
:100C1C002AC800002DE9F04F91B0009302F00403B4
:100C2C000193C2F3C20301330493830705460E46B6
:100C3C00DDF86890029240F0FC81041D30B1072968
:100C4C0009D86FF01B0011B0BDE8F08F01F007065A
:100C5C003444C6F108064FF000084FF0040B009B1B
:100C6C004746591E4FF0FF324346DA46CDF80C800A
:100C7C000DB1009820600498002800F3DF809B4899
:100C8C00DDF800C0844503D399488445C0F0D68074
:100C9C00DDF808C0A4EB050E1CF0020F4FEA9E0015
:100CAC0000F0E7804FF0000CD1E07A2862D84B2896
:100CBC000FD847285ED829282DD8252859D059D89F
:100CCC0020287DD0A0F12309D9F1000343EB0903BF
:100CDC0076E04C382E284DD8DFE800F0724C4C4CA6
:100CEC004C4C4C4C4C4C4C4C4E4C4C4C4C4C4C4C36
:100CFC004C5C4C4E4E5C5C5C724E6F4C724C184EA5
:100D0C00184C4C817E4E4C4C4E4C7E0000200023E7
:100D1C004FF0040B3CE04FF0010E2A38C0B20EFA33
:100D2C0000F04FF6DA7E10EA0E0F49D110F0625E39
:100D3C0030D110F0010343D07046013C5C44B4FB4D
:100D4C00FBF40BFB04F4002D5ED0AAEB050EA644BD
:100D5C00B6453FF676AF002868D1BAF1040F43D1FF
:100D6C00E14659F8040B2060CC464FF0040A0434D9
:100D7C0026E0013A002323E011F8013C6C2B30D122
:100D8C00002011F8023C6C2B0346C1D14FF0080B2C
:100D9C00DA46D2E70CF1070929F0070C073424F0E6
:100DAC000704FCE802AB35B105982044B0423FF68D
:100DBC0048AFC4E900AB002308344FF0080BDA4607
:100DCC0011F8010F002800F0BC80002B7FF46DAFF0
:100DDC002528F5D1012301324FF0040BEFE718461B
:100DEC0095E700200346A8E7BAF1080F40F09B8076
:100DFC000CF1070929F0070CFCE8029AC4E9009AE7
:100E0C004FF0080A0834DBE780B9BAF1040F02D1BD
:100E1C000CF10409A8E7BAF1080F40F084800CF13A
:100E2C00070929F0070909F1080CE9E7E1460498DC
:100E3C000138049059F8040B009019E702988007C8
:100E4C0048D54FF0010CA4EB050E4FEA9E00BEF501
:100E5C00007F1DD327494FF41F73274A274809F0F9
:100E6C0090FA274809F08DFA4FF41F71224809F0C7
:100E7C007FFA0F2F0ED8002D46D007F1400CEC4412
:100E8C000CF8200C0CF8102C03980130039020E087
:100E9C000F2F0CD9174940F28123174A174809F034
:100EAC0070FA184809F06DFA40F28121DEE7BDB105
:100EBC0007F1400EEE44C0B20EF8200C0EF8102CC8
:100ECC00BCF1000FE0D060F07F000EF8200C08F1B0
:100EDC0001080137C5F10800CC46043405906FE7D2
:100EEC00BCF1000F10D00136F3E700BFB0B5000025
:100EFC00B8ED00005EE4000055C80000A2C400007C
:100F0C0083C80000A4C80000019802360028E0D174
:100F1C000098CDE906310592FFF7C4FADDE90631F8
:100F2C00059A0644D5E740F2C623434A4349444850
:100F3C0009F027FA5146434809F023FA40F2C6213A
:100F4C0094E7631BB3F5806F0CD33C4940F2D2237A
:100F5C00394A3B4809F015FA3B4809F012FA40F2BD
:100F6C00D22183E71DB9A6F10804E0186BE6019ABB
:100F7C009B0828602B709DF80C30C2B1EB7085F883
:100F8C000280B8F1000F05D0002208A8C5F1010CB1
:100F9C0097420ED14FF0000AC5F101030DF1200963
:100FAC0002930DF1300B574512D1601B4BE66B7061
:100FBC00E5E710F8013B190608D50CEB040EB64515
:100FCC0003F07F033FF63DAE04F8013B0132DFE74F
:100FDC00B8F1000F03D099F90020002A17DB019B10
:100FEC00D3B11AF80B2004F8012B0022029B18191C
:100FFC001044B0423FF625AE99F80000009904F871
:10100C00010B204603920AF03BFA039A14440AF1AE
:10101C00010A09F10109C6E799F8002055F82230B8
:10102C000093019B009845F82230FFF73BFA421CD5
:10103C00DCE76FF00D0006E655C800005EE400002A
:10104C00A2C40000BEC80000D3C80000014B186049
:10105C00704700BF0803002080B505460E461746B2
:10106C00984608F043F803460AF092FA0446DFF873
:10107C001890424649F8003039463046A84754F893
:10108C00090001F02FFE00BF080000002DE9F84F09
:10109C000446A38B08461907154612D4022803F000
:1010AC00070165D1204609F079F988B10138042887
:1010BC0000F23781DFE810F05C0035018200D400CB
:1010CC00040101280CBF43F0100143F02001A1835F
:1010DC001434204608F0E8FA002840F09D819A4923
:1010EC004FF49A73994A9A4809F04BF92146B1E0AA
:1010FC0003F00702501F01281ED80020062A27687B
:10110C00C4E9000014D13A4603E0E08B0130E083DF
:10111C001268002AF9D123F0070343F0020220469B
:10112C00A28309F03BF990B342F02002A2832EE097
:10113C0023F007039AB2F2E7042A33D123F0070312
:10114C009AB22046A28309F029F910B142F020028C
:10115C00A283A38B03F00709894540F0EC80A18B97
:10116C00CA0640F1508121F01003A38301F007015E
:10117C00D4F81880A38BB8F1000FB9DA00222768D5
:10118C0023F00703C4E9002243F00103A383A38BDC
:10119C0003F00709894540F0CF80002FDFD00026EF
:1011AC00B24644E06B4940F21B136B4A684809F0A5
:1011BC00E8F840F21B11684809F0DAF849B16749C0
:1011CC004FF4AB73644A624809F0DBF84FF4AB712F
:1011DC00F1E723684BB9624940F257135E4A5C4809
:1011EC0009F0CFF840F25711E5E723691E684EB9B4
:1011FC005C494FF4AD73584A554809F0C2F84FF4A6
:10120C00AD71D8E70F4688464FF00609A38B23F043
:10121C00070343F006039BB2A383A268002A40F0A5
:10122C008D80002F40F08D80002E98D0BA4643F070
:10123C00080304F1140B5846A38308F035FA002870
:10124C0040F09A8040494FF49A73404A404809F064
:10125C0098F85946444809F094F84FF49A71ADE067
:10126C00022909D0414940F25D133B4A384809F044
:10127C0088F840F25D119EE7E78B4FB13C494FF483
:10128C00AF73354A324809F07CF84FF4AF7192E7EE
:10129C0023695E684EB9334940F261132E4A2C48DB
:1012AC0009F06FF840F2611185E7A38BB84623F083
:1012BC00070343F004039BB24FF00409A383ACE78C
:1012CC00012909D02B494FF4B273234A204809F065
:1012DC0058F84FF4B2716EE723684BB9204940F2CD
:1012EC0065131D4A1A4809F04CF840F2651162E783
:1012FC0023699E684EB91B494FF4B473164A1448BF
:10130C0009F03FF84FF4B47155E70027A38BB846AA
:10131C0023F0070343F005039BB24FF00509A383A9
:10132C007BE70C4940F26B130B4A094809F029F88A
:10133C0040F26B113FE7002700266EE74FF0010AE1
:10134C0075E7924673E700BFCEC90000A1C9000043
:10135C00A2C400005EE40000FBC8000020C900002D
:10136C002CC900004FC90000E5C9000066C9000087
:10137C007CC900008BC9000085F31188BFF36F8F07
:10138C00BAF1000F1CD177BB16B120462549B047E6
:10139C00EFF31185202383F31288BFF36F8F584628
:1013AC0008F074F938BB88231F4A2049204808F0FC
:1013BC00E8FF59461F4808F0E4FF88211A48FBE66D
:1013CC00A1680029DFD00D680029DCD043464A46CD
:1013DC002046D1F804A0D0471DB12B6829461D46E4
:1013EC00F2E72B46FAE7394643464A4620463F6821
:1013FC0009F000F8C7E7584608F06CF9A38B23F006
:10140C000803A383ABE68B067FF562AE21F02003C5
:10141C00A38301F0070145E685F31188BFF36F8FB5
:10142C00BDE8F88F45140000A1C90000FAC90000FE
:10143C00A2C400000FCA0000F8B504460D4600F126
:10144C001406EFF31187202383F31288BFF36F8FF9
:10145C00304608F01BF968B988230C4A0C490D4832
:10146C0008F08FFF31460C4808F08BFF88210748A5
:10147C0008F07EFF304608F02DF9A5613A4620466B
:10148C00BDE8F8400121FFF701BE00BFA1C9000073
:10149C00FAC90000A2C400000FCA00002DE9F047F1
:1014AC0004460F4608F096FF051E68DB04F114098C
:1014BC00EFF3118A202383F31288BFF36F8F484612
:1014CC0008F0E4F8804660B98823384A384939482E
:1014DC0008F057FF4946384808F053FF8821334835
:1014EC0042E0484608F0F6F84FF6FF72E38BA68B05
:1014FC00934206F0070645D0022E15D1354601332E
:10150C00E383484608F0D0F8002841D14FF49A7391
:10151C00264A2A49274808F034FF4946284808F04B
:10152C0030FF4FF49A71DAE7062E13D8DFE806F095
:10153C00092D1212090409006FF085054FF00008FF
:10154C00DFE700233B60636883B9C4E9007786B1A9
:10155C003546F3E71B4917484FF4E4731A4A08F071
:10156C0010FF4FF4E471184808F002FF1F60676029
:10157C00EDE7524602212046FFF788FD3546284606
:10158C00BDE8F0876FF00A05D8E76FF00405D5E7E2
:10159C008AF31188BFF36F8FB8F1000FEFD00023DF
:1015AC0032463946204608F025FFE8E7A1C900007D
:1015BC00FAC90000A2C400000FCA0000CEC9000086
:1015CC00E5C900008BC90000FBC8000008B54268E3
:1015DC00034602F00302032A816002D02AB10020E4
:1015EC0000E0006800225A6008BD05490548452303
:1015FC00054A08F0C6FE4521034808F0B9FE00BFB5
:10160C005EE40000A2C4000025CA00002DE9F84FDA
:10161C00DFF800A1404F8146AAEB07038F2B8846C9
:10162C000BD93E494FF4A6733D4A3E4808F0A9FE3B
:10163C004FF4A6713A4808F09BFE3B4808F019FF9E
:10164C000646002837D13C4605464FF0010B544561
:10165C002AD936494FF4AC73314A324808F091FE1E
:10166C00334808F08EFE4FF4AC71E3E7237B83B173
:10167C002368DB680BB120469847636883F806B093
:10168C0023681B6943B9636804222046196808F073
:10169C0011FF01361034DAE7204698470028F2D0C3
:1016AC000BFA06F31D43F4E7E0D3B9F1000F02D0B7
:1016BC004FF0010A0DB9BDE8F88FA94695FAA5F4CB
:1016CC00B4FA84F40AFA04F3260107EB04146FEA63
:1016DC00030B25EA0305237B5BB1BB591B69A3B93B
:1016EC003E44736804222046196809EA0B0908F085
:1016FC00E1FE002DE2D1B8F1000F04D040F2391018
:10170C00002107F053FC4D46D4E7204698470028AB
:10171C00EFD1E5E7CCC00000BCC0000078CA0000E7
:10172C004BCA0000A2C4000060060020A8CA00003A
:10173C00C9CA0000014B53F82000704718C10000C3
:10174C0008B5034608462BB1044A136000F008FBA9
:10175C00002008BD6FF01500FBE700BF0C03002054
:10176C000023144A10B51370134A14491360144A19
:10177C0014481360FFF7E4FF134B144918468B42CF
:10178C0015D9134940F22713124A134808F0F9FDF2
:10179C00124808F0F6FD40F227110E4808F0E8FD5B
:1017AC001A1A5C681211013222711033E7E7F7D371
:1017BC0010BD00BFE40800205806002040420F0076
:1017CC005C0600207BA40000BCC00000CCC0000064
:1017DC00A8CA00004BCA0000A2C40000C9CA00007D
:1017EC0070B5134D297809BB0120FFF70FFF114C81
:1017FC00114EB44217D9114940F2C513104A114881
:10180C0008F0BFFD104808F0BCFD40F2C5110C48B3
:10181C0008F0AEFD63685B791BB1236820469B68BA
:10182C0098471034E5E7F5D301232B7070BD00BF4A
:10183C00E4080020BCC00000CCC00000A8CA000016
:10184C004BCA0000A2C40000C9CA000010B504466F
:10185C00064808F00EFE3CB1054BD3E8EF1F0139EA
:10186C00C3E8E21F002AF8D110BD00BF58060020C3
:10187C005C06002070B5124B05461B689847114C4E
:10188C00114EA860B44218D910494FF40073104A95
:10189C00104808F076FD104808F073FD4FF4007105
:1018AC000B4808F065FD63685B7923B12368294612
:1018BC0020461B6898471034E4E7F4D370BD00BF92
:1018CC000C030020BCC00000CCC00000A8CA000063
:1018DC004BCA0000A2C40000C9CA0000044A054B50
:1018EC009B1AB1EBD30F34BF52F831000020704774
:1018FC003CC00000BCC000002DE9F04F87B004AF25
:10190C000446D7E90EA90E46934698463D6BBAF1AC
:10191C00000F2BD0C7F80490CDF80090102153463F
:10192C0000207A6BFFF776F9011E0BDA284940F29A
:10193C006513284A284808F024FD40F26511254813
:10194C0008F016FDB1F5006F11DB40F2FF73039345
:10195C00224B02220293002321491846CDE9003381
:10196C0008F0CAFD0C37BD46BDE8F08F514604F0B7
:10197C0007040BF0070BE40044EA8B1444EA4124FF
:10198C0044EA055417350D4425F00705ADEB050D5C
:10199C0004ADBAF1000F13D0CDF8009053467A6B1A
:1019AC0005F11000FFF736F9002809DA08494FF461
:1019BC00C473084A084808F0E4FC4FF4C471BEE74D
:1019CC00434622463146284608F07DFDCAE700BF53
:1019DC0021CB0000F5CA0000A2C400002BCB0000F4
:1019EC0064C00000406820B1034BC01A40F3CF0024
:1019FC0070474FF0FF3070473CC000000EB403B589
:101A0C0003AB53F8042B01460448019301F040FD4D
:101A1C0002B05DF804EB03B0704700BF41A50000B5
:101A2C00CA0605D48B064CBF02490349FFF7E6BF33
:101A3C00704700BFBEE6000063CB00002DE9F04FFD
:101A4C0087B09DF8446004460D4690469946002E9A
:101A5C0000F0B180042E0BD9A94940F24623A94AC3
:101A6C00A94808F08EFC40F24621A64808F080FCFC
:101A7C00159B03F0020A03F001030493159B03F07A
:101A8C00080B03F48073059308F012FD024600283E
:101A9C003ED020469D49FFF7B1FF0746BAF1000F33
:101AAC0009D0159B13F0440F34D12A46204698498F
:101ABC00FFF7A4FF0744049B53B1964B204653F801
:101ACC002620954B9549002A08BF1A46FFF796FF2A
:101ADC00059B002B4AD0BBF1000F65D1B8F1000F6C
:101AEC0067D0424620468E49FFF788FF0546129B79
:101AFC003D44002B6ED1149B002B40F08380159B32
:101B0C00DB0700F1F78020461599FFF789FFE4E029
:101B1C000746C3E7834B18680028CBD0824B4FF4A1
:101B2C007A7A1B684FF03C0CB5FBF3F5B5FBF0F182
:101B3C004FF4616300FB11550AFB05F5B1FBF3F2A1
:101B4C00B5FBF0FE03FB121100FB1E55B1FBFCF3C1
:101B5C000AFB05F5B5FBF0F50CFB131120460091C3
:101B6C00CDE901E57149FFF749FFA3E7BBF1000F90
:101B7C001DD06F4B204653F826206E49FFF73EFFD1
:101B8C000546B8F1000F05D0424620466449FFF7E0
:101B9C0035FF0544B9F1000FA9D04A4620466649E5
:101BAC00FFF72CFF0544A2E74FF00009E1E75D4683
:101BBC00E7E745469BE7B9F1010F129B06D1DBB96C
:101BCC00149B002B00F0898000251BE0002BF7D024
:101BDC005A4812E05A482246129B5A4908F086FB92
:101BEC0000280CDA58494FF42873464A464808F046
:101BFC00C8FB4FF4287138E751483546EBE7149B86
:101C0C00002B67D0DFF84481DFF84491149F204605
:101C1C00102F159928BF10274FF0000BFFF700FF6E
:101C2C005D4544DC139B494620461A78FFF7E6FED7
:101C3C004FF0010B1BF0070F03D141462046FFF775
:101C4C00DDFE5F453AD9139B4946204613F80B201D
:101C5C00FFF7D4FE0BF1010BBBF1100FEAD14FF0E3
:101C6C00000A20463B49FFF7C9FE5246DFF8E8B0B0
:101C7C00139B20469A5CA2F120015F2928BF2E22DB
:101C8C005946FFF7BBFE0AF1010ABAF1100F1AD040
:101C9C001AF0070F03D141462046FFF7AFFE574518
:101CAC005246E5D841462046FFF7A8FEEBE74146F1
:101CBC002046FFF7A3FE0BF1010BB1E720462749A5
:101CCC00FFF79CFEC6E7139B3B441393149BDB1B53
:101CDC0014939BD1002E7FF412AF6268A168D2E9F5
:101CEC000023206808F018FC002263681A6007B013
:101CFC00BDE8F08F2046084A0849FFF77FFE02E74F
:101D0C009ACB00006BCB0000A2C40000A5CB000056
:101D1C00A9CB000028C1000066CB000076DA0000D9
:101D2C00CECB00006806002064060020B2CB000079
:101D3C003CC10000D2CB0000D8CB00005DA5000058
:101D4C0041A500009D340000DDCB0000EECB00006F
:101D5C00E6CB0000F0CB0000F2CB0000ECCB000097
:101D6C0000210123064A904206D8064A01B90123F4
:101D7C001360054B18607047012140085B00F2E7C7
:101D8C0040420F0064060020680600202DE9F04157
:101D9C0043680C481C68656800F0C2F801232B7579
:101DAC0025682F68D5E90136D3E900481CB96B6862
:101DBC001C60BDE8F081214630464246B847241AE3
:101DCC000644F3E7B0B60000F8B504460B480D46E0
:101DDC0000F0A6F8002808DB084F6619B44206D1BB
:101DEC0020220023054800F063FA2846F8BD14F8B9
:101DFC00011BBB6801485B689847EFE7B0B6000071
:101E0C0010B543681C68094809F032FA48B908490A
:101E1C0008489923084A08F0B4FA9921064808F0B2
:101E2C00A7FA23685B685C6010BD00BFB0B6000009
:101E3C0053CC0000A2C4000015CC0000014B036081
:101E4C000020704784C100007FB50BAB0593039352
:101E5C00054B0222029300231846CDE90033FFF70D
:101E6C004BFD07B05DF804FBA6CC000070B5044632
:101E7C00006A002846D0082108F029FC01460028F9
:101E8C0039D0256A1435EFF31186202383F3128899
:101E9C00BFF36F8F284607F0F9FB68B988231A4AFD
:101EAC001A491B4808F06DFA29461A4808F069FAD5
:101EBC008821154808F05CFA284607F00BFC2046F0
:101ECC0008F0E2FB0446284607F0EEFB68B94FF435
:101EDC009A730D4A10490E4808F053FA29460F48D8
:101EEC0008F04FFA4FF49A71E3E786F31188BFF3C9
:101EFC006F8F204670BD2046BDE870400022002345
:101F0C0000F014B90446F4E7A1C90000FAC90000B6
:101F1C00A2C400000FCA0000CEC90000E5C9000031
:101F2C002DE9F74F056A064625B90024204603B073
:101F3C00BDE8F08F0521284608F0C9FB0028F4D035
:101F4C000821306A08F0C3FB0446002855D0356AD6
:101F5C001435EFF31188202383F31288BFF36F8FAE
:101F6C00284607F093FB68B98823694A69496A488F
:101F7C0008F007FA2946694808F003FA88216448F2
:101F8C0008F0F6F9284607F0A5FB376AFA683B68B3
:101F9C004ABB5A0717D401213046BB689847041E28
:101FAC001BDA284607F080FB10BB4FF49A73584A93
:101FBC005B49594808F0E5F929465A4808F0E1F917
:101FCC004FF49A71DBE73869036A1B68DB050CD5A3
:101FDC00FFF7A6FF041EDEDAE3E700233B71FB6884
:101FEC000133FB60DDE70024F9E76FF00A04D8E762
:101FFC0088F31188BFF36F8F98E74B4F3B786BB129
:10200C0009F0B9F9421E64F1000305F1180008F05B
:10201C0064FB041E03DA6FF00A0487E71C4609F020
:10202C00AAF910B12B79022B16D0D5F810A0BAF161
:10203C00000F24D00221306A08F049FBF8B9504651
:10204C00FFF76EFF044648B90121284608F03FFB14
:10205C0068B15046FFF70AFF6FF00A043B78002B7B
:10206C003FF464AF05F1180008F039FB5EE7D5E8E2
:10207C00EF3F43F00403C5E8E23F002AF7D1EB68D9
:10208C000133EB602B79022B08D105F1380006F0F7
:10209C004BF910F0010001D12871DFE73B7843B117
:1020AC004FF0FF384FF0FF3905F128062B79022B42
:1020BC0012D0EB68012BD1D80121AB686869984725
:1020CC00041E21DAEB68013BEB60BAF1000FC5D0BE
:1020DC005046FFF7CBFEC1E70321304605F1180B44
:1020EC0009F0C7F9584608F0FAFA002203213046E5
:1020FC00CDE9008909F0C1F94FF0FF324FF0FF3301
:10210C00584608F0EAFAD1E700232B71A6E700BF86
:10211C00A1C90000FAC90000A2C400000FCA000047
:10212C00CEC90000E5C90000F90800202DE9FF47E1
:10213C00056A07460E462846052108F0C8FA91465E
:10214C009846044630B3DFF8B8A09AF8001029B3CB
:10215C0009F011F94FF0FF33421E43F1000305F172
:10216C00180008F0BAFA041E47DB3146EB68BBB91D
:10217C00244A1846CDE90132234902220093FFF785
:10218C0063FE6FF077049AF800301BB105F118006C
:10219C0008F0A5FA204604B0BDE8F0870C46E5E748
:1021AC00013BEB60002BEED141B102234A462B716F
:1021BC0005F13800434606F0B1F8E4E7AB6868690E
:1021CC009847041E03DAEB680133EB60DBE701236D
:1021DC002B710221386A08F07AFA0028D3D03B6AB6
:1021EC001869FFF743FE3B6AD3E8EF1F21F00401A7
:1021FC00C3E8E21F002AC6D0F6E76FF00F04C9E768
:10220C00F9080020A6CC000094C00000F8B500210D
:10221C00044650F8303C50F8240C98470546A4F17D
:10222C0020074FF0FF334FF0FF32384608F055FAD5
:10223C00002DB7BF54F82C3C0123013344F82C3C3F
:10224C00B8BF002304F8343C0121A4F110009940DC
:10225C0009F00BF93846A4F1380608F040FA6DB1D4
:10226C0097230F4A0F49104808F08BF829460F485E
:10227C0008F087F897210A4808F07AF802213046CE
:10228C0008F025FA58B154F8280CFFF7EFFDD6E802
:10229C00EF3F23F00403C6E8E23F002AF7D1F8BD74
:1022AC00B9CC0000E7CC0000A2C40000F0CC0000C8
:1022BC0070B50446006A002844D0082108F007FADB
:1022CC00002839D0256A1435EFF31186202383F3C7
:1022DC001288BFF36F8F284607F0D8F968B98823A6
:1022EC00194A1A491A4808F04CF82946194808F0B6
:1022FC0048F88821144808F03BF8284607F0EAF91A
:10230C00204608F0C1F90446284607F0CDF968B913
:10231C004FF49A730C4A10490D4808F032F82946CC
:10232C000E4808F02EF84FF49A71E3E786F3118803
:10233C00BFF36F8F204670BD2046BDE87040012171
:10234C00FFF7F4BE0446F5E7A1C90000FAC9000086
:10235C00A2C400000FCA0000CEC90000E5C90000ED
:10236C002DE9F041056A8046002D00F08E80052194
:10237C00284608F0ACF9002840F08A80404608F066
:10238C0048F90446002840F085800821D8F8200040
:10239C0008F09DF9002847D0D8F8205005F1140614
:1023AC00EFF31187202383F31288BFF36F8F30462E
:1023BC0007F06CF968B98823384A3949394807F06D
:1023CC00E0FF3146384807F0DCFF8821334807F03E
:1023DC00CFFF304607F07EF9297931B94046AB681A
:1023EC009847041E07DB01232B712B6843F0200355
:1023FC002B600023EB60304607F056F968B94FF4B8
:10240C009A73264A2949274807F0BBFF31462848CA
:10241C0007F0B7FF4FF49A71D8E787F31188BFF331
:10242C006F8F2046BDE8F081224E33783BB14FF0E0
:10243C00FF324FF0FF3305F1180008F04EF96B69CD
:10244C0033B91D49C5F8148005F1380005F0B6FE06
:10245C002979C1B9AB6868699847041E0BDB012365
:10246C002B710023EB60D5E8EF3F43F02003C5E868
:10247C00E23F002AF7D13378002BD2D005F11800B7
:10248C0008F02DF9CDE70024EBE76FF08504C8E7E1
:10249C000024C6E76FF00F04C3E700BFA1C900001A
:1024AC00FAC90000A2C400000FCA0000CEC9000087
:1024BC00E5C90000F90800201922000008B50348FE
:1024CC00034A0021121A08F01BF908BDC8030020AA
:1024DC00FC080020074808B5074A0849121A08F0FA
:1024EC0011F9BDE808400648064A0749121A08F0D7
:1024FC0009B900BF00000020C8030020B8ED00009F
:10250C000000002000000020B8ED000070B5064669
:10251C000D4686B0002938D000248B680122059323
:10252C004B68204604930B6823490393234BCDE956
:10253C0000440293234608F0E7F86B6901220593E7
:10254C002B6920460493EB681B4903931C4B0094A6
:10255C00CDE90143234608F0D7F8EB690122039338
:10256C00184B2046CDE9014313492346009408F04B
:10257C00CBF8AB6901220393134B2046CDE9014301
:10258C000D492346009408F0BFF8012E0DD1EFF34E
:10259C000583103B03930D4B3246029300230649EF
:1025AC001846CDE9003308F0AFF82946304606B09E
:1025BC00BDE8704005F038B88CC0000016CD0000A6
:1025CC0045CD000074CD000083CD0000B1CD0000DE
:1025DC0030BFFFF7FDBF00BF2DE9F04105460B4EA4
:1025EC00DFF82C80324606EB0807CC1B2046094945
:1025FC0008F046FFA01942460021083C08F04DFFA8
:10260C00C5F8804007F10800BDE8F081000000002B
:10261C0004000000CCC00000054B5A699B689A422C
:10262C001FBF044A536843F080535360704700BF88
:10263C00A008002000ED00E0F0B500244B4B85B065
:10264C000293074623460E4601222046CDE900445C
:10265C00474908F074F8474B9B6ADD0674D5464B26
:10266C002046CDE90143012223464149009408F05C
:10267C0066F811203F4B9B6A1C070AD53F4B012281
:10268C00029300233A491846CDE9003308F057F875
:10269C001220384DAB6A99071FD50024384B012204
:1026AC00029320462346CDE90044314908F047F80F
:1026BC006B6BAA6A12060FD50393324B0122CDE93C
:1026CC000143204623462A49009408F038F81FB1EC
:1026DC00AB6A23F08003AB621320264B9B6ADB07AB
:1026EC000AD5294B01220293002321491846CDE932
:1026FC00003308F024F814201E4B9B6A9F060AD561
:10270C00224B01220293002319491846CDE90033CC
:10271C0008F015F81520174B9A6AD50602D49A6A58
:10272C00940713D59B6AD90610D5194940F22D137D
:10273C00184A194807F025FE184807F022FE40F207
:10274C002D11144807F014FE102093E7094B9A6AD8
:10275C00920642BF5A6A22F400525A629A6A42F0B6
:10276C00FF029A620023337005B0F0BDC4CD0000A7
:10277C008CC0000000ED00E0DACD00000DCE0000B2
:10278C0020CE000038CE00004ECE00006DCE0000F2
:10279C00CECE00009CCE0000A2C4000018CF0000DA
:1027AC00F0B50024434B85B00293074623460E46F2
:1027BC0001222046CDE900443F4907F0C0FF3F4BC2
:1027CC009B6ADB0465D53E4B2046CDE901430122D3
:1027DC0023463949009407F0B2FF1720374B9B6A08
:1027EC001D050AD5374B01220293002332491846A6
:1027FC00CDE9003307F0A3FF1820304DAB6A9C05E0
:10280C001FD50024304B012220460293CDE9004411
:10281C002346294907F093FFAB6BAA6A10040FD526
:10282C0003932A4B0122CDE901432046234622493A
:10283C00009407F084FF1FB1AB6A23F40043AB6232
:10284C0019201E4B9B6A59050AD5214B0122029374
:10285C00002319491846CDE9003307F070FF1A2000
:10286C00164A936A13F4807315D01A4B0122029303
:10287C00002311491846CDE9003307F060FF1B20F7
:10288C000E4A936A43F47F4393620023337005B07E
:10289C00F0BD1620A2E7926A9204F1D50E4A1846B2
:1028AC00CDE9013204490122009307F048FF1C20B6
:1028BC00E6E700BF7CCF00008CC0000000ED00E01C
:1028CC0092CF00000DCE0000A3CF0000BCCF0000C3
:1028DC00D1CF0000ECCF00006DCE00001FB500245E
:1028EC003E4B3F490293012223462046CDE900444A
:1028FC0007F025FF3B4B9B6A99016DD53A4B20465F
:10290C00CDE90143012223463549009407F017FF16
:10291C001E20344B9B6ADA010AD5344B01220293F8
:10292C0000232F491846CDE9003307F008FF1F207C
:10293C002C4B9B6ADB020AD52D4B01220293002300
:10294C0027491846CDE9003307F0F9FE0220254B44
:10295C009B6A1C030AD5274B0122029300232049B2
:10296C001846CDE9003307F0EAFE21201D4B9B6A87
:10297C0059030AD5204B012202930023184918460B
:10298C00CDE9003307F0DBFE2220164B9B6A9A033D
:10299C000AD51A4B01220293002311491846CDE99E
:1029AC00003307F0CCFE23200E4B9B6ADB030AD5C9
:1029BC00134B01220293002309491846CDE9003339
:1029CC0007F0BDFE2420074A936A6FEA03436FEABF
:1029DC001343936204B010BD1D209AE704D000008D
:1029EC008CC0000000ED00E01CD000002FD00000D7
:1029FC0049D0000073D0000091D00000B6D0000088
:102A0C00D0D000002DE9F041884B0446586890B0B6
:102A1C000023C0F3080683F31188BFF36F8F02F015
:102A2C007F45B5F17F4F0CD102F00C05082D17D165
:102A3C007F4A1846CDE901327E490122009307F006
:102A4C007EFE7D4940F214437C4A7D4807F099FC98
:102A5C007C4807F096FC40F21441784807F088FC5B
:102A6C00120746BF0C461D460125002CE9D04FF03D
:102A7C000008F31E8DF81F80092B00F2BE80DFE8E2
:102A8C0003F005B2B695BCBCBCBCBCBA6E4B012203
:102A9C00CDE90183002367491846644FCDF80080C7
:102AAC0007F04DFE8DF81F80FE6A16F0020605D069
:102ABC00664BCDE90183CDF8008006E0FB6A002B64
:102ACC000BDA634B0096CDE9016300230122184613
:102ADC00584907F034FE002230E0FB6A5B0075D5E4
:102AEC005C4B0122CDE901633046334651490096D7
:102AFC0007F025FE7B69A26943F480737B61BFF309
:102B0C004F8FBFF36F8F7B6932F8022C23F48073E5
:102B1C007B61BFF34F8FBFF36F8F4DF602739A42F9
:102B2C002CD12368012203934B4B3046CDE9016332
:102B3C0040493346009607F002FE22689DF81F308C
:102B4C00CBB908AE04F1200733462068616808341D
:102B5C0003C3BC421E46F7D10F9B002D61D0C3F3BB
:102B6C00080121B96FEA53236FEA43230F931046F0
:102B7C0008A9FFF7CBFC10B0BDE8F081BB6ADBB253
:102B8C0033B101200DF11F01FFF756FD0246D5E7C9
:102B9C00BB6A13F47F4F05D001200DF11F01FFF725
:102BAC00FFFDF3E7BB6AB3F5803F02D3FFF796FE58
:102BBC00ECE72A4940F2ED23204A214807F0E1FBDB
:102BCC00274807F0DEFB40F2ED2146E723494FF49E
:102BDC003C731A4A1A4807F0D4FB224807F0D1FB81
:102BEC004FF43C7139E700200DF11F01CCE70020B8
:102BFC000DF11F01D3E71C4B5BE71C4A10F4F87F67
:102C0C001B4B18BF1346103ECDE90336194B01225E
:102C1C000293002307491846CDE9003307F08FFDD6
:102C2C0059E723F4FF7323F001039FE700ED00E065
:102C3C0029D100008CC0000054D100009CCE0000B3
:102C4C00A2C4000067D10000A5D10000BCD10000D7
:102C5C00DDD10000EBD100000AD200005EE40000E0
:102C6C0026D200004AD200007AD2000010D1000017
:102C7C00FBD000009ED20000064B5A6942F01002B5
:102C8C005A615A6942F480625A615A6922F0080208
:102C9C005A61704700ED00E0EFF30880EFF3098113
:102CAC0001B57246FFF7AEFE01BD00BF0B4880F3C5
:102CBC00088802F019FD202080F3118808484FF491
:102CCC000051401880F30988EFF314800221084367
:102CDC0080F31488BFF36F8F00F0D0F800690020E8
:102CEC0000090020084B9B6883420BD1EFF305834E
:102CFC0043B1064B5A6842F080525A605A6A22F429
:102D0C0000425A6206F0F8B9A008002000ED00E07D
:102D1C0016498A684FF030001044EFF3098C80E8B4
:102D2C00F01F202080F31288BFF36F8F104F4FF0ED
:102D3C0000664A698A603E60D2F880000D4C2060C3
:102D4C00D2F884000023C2F8843080F3118802F199
:102D5C00300090E8F01F8CF3098802F1000004B5F4
:102D6C0007F001FDBDE8044070470000A0080020FA
:102D7C0004ED00E0900600201EF0040F0CBFEFF3F2
:102D8C000880EFF30980816911F8021C0229FFD039
:102D9C0001B5724607F0C8FC01BD00BF00B20028A7
:102DAC0007DB01234109034A00F01F00834042F86E
:102DBC002130704700E100E000B200280CDB01225A
:102DCC000649430900F01F008240203341F82320BC
:102DDC00BFF34F8FBFF36F8F704700BF00E100E070
:102DEC00054B420953F82220012300F01F0003FA7F
:102DFC0000F01040704700BF00E100E038B54B1CFC
:102E0C00072B04460D460FD96B23104A1049114865
:102E1C0007F0B7FA294610480723224607F0B1FA03
:102E2C006B210A4807F0A4FA00B20028ACBF00F1ED
:102E3C0060400A4A4FEA4313DBB2ABBF00F5614076
:102E4C0000F00F0080F80033135438BDB1D20000ED
:102E5C00E8D20000A2C4000003D3000014ED00E08F
:102E6C00044B054A23F07F039360BFF34F8FBFF3EE
:102E7C006F8F70470000000000ED00E008B5FFF711
:102E8C00EFFF0B4AD2F8883023F47003C2F8883075
:102E9C00EFF3148323F0040383F31488BFF36F8FD1
:102EAC00FFF70CFBFFF716FB00F046F804F00AFDE9
:102EBC0000ED00E042F8203C009B0B4942F81C3C22
:102ECC00019B21F0010142F8183C029B42F8081CBE
:102EDC0042F8143C4FF0807342F8043C0023203A33
:102EEC000265C0F8843070476510000000B50D4BCA
:102EFC0015469860D0F880200B4B0E461A60036F75
:102F0C0083F30B882C4686F309880020034B9847E3
:102F1C002046002100220023014C204781A70000FD
:102F2C0065100000A0080020900600201022014B24
:102F3C001A61704700ED00E00023202040F20F12D0
:102F4C0010B5044CE1180133934281F80003F9D118
:102F5C0010BD00BF00E100E008B5EFF30583064AA1
:102F6C00103B02EBC30152F8330049688847BDE8B7
:102F7C000840FFF751BB00BF40B700001FB5094C1C
:102F8C00094A23460121094800F020F90023039344
:102F9C00074B0121E41A01A80193029400F03AF9BD
:102FAC0004B010BD00E002200000002084C100002D
:102FBC00C803002010B50C7A0B6804F01F0223F034
:102FCC001F031A43CB68640923F01F03054943EA26
:102FDC00440343F00103C1F89800C1F89C20C1F8E8
:102FEC00A03010BD00ED00E01FB50E4B0446D3F829
:102FFC009030C3F30723013B98420FD90A4B03903F
:10300C000293002301221846CDE90033074907F04B
:10301C00DDFB6FF01504204604B010BDFFF7CAFFAE
:10302C00F9E700BF00ED00E047D3000084C00000CA
:10303C002DE9F04F8946144606464FF00008544DD2
:10304C0089B0C8452DDAD6F804A0BAF1000F4AD0E1
:10305C00BAF11F0F17D91AF01F0F14D1D6F800B000
:10306C001BF01F0F0FD1584607F0A7FB07460AEBC2
:10307C000B00013807F0A1FB874216D06FF0150743
:10308C00444B039702E0444BCDF80C800293002391
:10309C0001221846CDE90033404907F097FB6FF049
:1030AC001504204609B0BDE8F08F17F1160FE7D0D4
:1030BC00BC42E5DDC5F89870D5F89C10C5F8987041
:1030CC00D5F8A03021F01F0143F01F0BD6E90032D8
:1030DC001A44994202F1FF3A1DD1D34507D131462A
:1030EC00F8B207F083FB08F101080C36A9E731466A
:1030FC00C5F89870D5F89C3022F01F0203F01F031E
:10310C001343C5F89C30E0B207F070FB10F1160FBA
:10311C00C5D0441CE7E7C5F89870D5F8A020013B52
:10312C0023F01F0302F01F021343D3453146E0B2D4
:10313C00C5F8A030E8D007F059FB10F1160FAED04F
:10314C00C5F89870D5F89C209DF818300BF1FF3B12
:10315C0062F304038DF81830D5F8A0309DF81820D0
:10316C005B0863F347128DF81820D6E9003213443C
:10317C00049323F01F035B44A3EB0A03013023F0F9
:10318C001F0304A9C0B20793FFF72EFFBEE700BFD1
:10319C0000ED00E090D300006DD3000084C000006F
:1031AC000522044BC3F89420BFF34F8FBFF36F8FEE
:1031BC00704700BF00ED00E0BFF35F8F0022024BB1
:1031CC00C3F89420704700BF00ED00E038B50C4DFB
:1031DC000C462A78FFF72CFF287016300FD14FF4CD
:1031EC00BF73084A0849094807F0CBF8214608483C
:1031FC0007F0C7F84FF4BF71024807F0B9F838BDB3
:10320C00E6080020B3D300005EE40000A2C4000076
:10321C00E2D300002DE9F74F314E894605464FF0B9
:10322C000008B3462F4FC84502DB03B0BDE8F08F52
:10323C00D5F804A0BAF1000F4CD0296808460191CA
:10324C0007F0BBFA019904460AEB0100013807F0BC
:10325C00B4FA84424FF01402234B15D002FB08F34E
:10326C006FF015024BF803204FF4C7731F4A204927
:10327C00204807F086F849461F4807F082F84FF4BB
:10328C00C7711A4807F074F814F1160F3460EBD0BC
:10329C001978A142E8DD02FB08B0C7F89840C7F8DE
:1032AC009840D7F89C4000F10801007B64F30400BF
:1032BC000871D7F8A0000C79400860F347140C7122
:1032CC00D7F89C1021F01F017160D7F8A01021F0E5
:1032DC001F01316108F1010814360C35A3E700BF5A
:1032EC009406002000ED00E0E6080020B3D30000B7
:1032FC005EE40000A2C400000ED400002DE9F041F1
:10330C00574C584ED4F890303568C3F307239D4280
:10331C0086B013D940F2F713534A5449544807F076
:10332C0030F8D4F8902029465248C2F3072207F00F
:10333C0028F840F2F7114C4807F01AF80020FFF774
:10334C003BFF4D4BC4F8C03085421AD14B4C01A801
:10335C002570FEF773FD002506464FF04108484FD7
:10336C00AE4215D1002023783D49D1F89020C2F30C
:10337C00072293426DDB0020FFF712FF06B0BDE879
:10338C00F081716801EB0011FFF714FE0130DBE7EF
:10339C00019A290102EB0513D3F80CC00CEA0700C3
:1033AC00B0F5001F27D0B0F5800F40D0B0F5801FCE
:1033BC004DD1586852589B68CDE902022122013B3D
:1033CC0020F01F010B4423F01F038DF810200593F0
:1033DC00207802A9FFF708FE002835DA234940F2CD
:1033EC002123214A224806F0CCFF264806F0C9FFCB
:1033FC0040F221219FE758689B685258013B20F00E
:10340C001F010B4423F01F031CF0010FCDE9020236
:10341C008DF810800593DBD01B498323124A144886
:10342C0006F0AFFF194806F0ACFF832183E758681C
:10343C009B685258013B20F01F010B44CDE902025E
:10344C0023F01F030222C0E72378013323700135D8
:10345C0086E7C1F89830C1F8A000013385E700BFBA
:10346C0000ED00E090C10000B3D300005EE400006A
:10347C00A2C400003DD40000AAFF4400E6080020CE
:10348C000000F0FFC6D4000071D4000097D40000F7
:10349C00F0B587B007460E46144600211022684648
:1034AC001D4607F0FAFF02238DF80230054B2A4621
:1034BC0021466846CDE90476019306F07FFC07B0FF
:1034CC00F0BD00BF2BA8000008B5024B1B68984745
:1034DC00002008BDA8060020034B044A186093780E
:1034EC0043F0020393707047A806002018030020D5
:1034FC0008B50649064821F00701C1F1005202F552
:10350C003832FDF7F9FA002008BD00BF076D002026
:10351C00AC06002008B5234A234B1A6000F05EF875
:10352C004FF47A612148D0F82436C3F30802C3F370
:10353C0009434B4382F480721D49883201FB0233EC
:10354C004FF4FA215B00B3FBF1F201FB1233194982
:10355C00B3F57A3F28BF0132C1F80429D0F82036E0
:10356C004FF47A60C3F30802C3F30943434342F2B6
:10357C001C5082F4807202F2172200FB02334FF4CB
:10358C007A701B0AB3FBF0F200FB1233B3F5FA7F2F
:10359C004FF0010328BF0132C1F81C27C1F80036D7
:1035AC00002008BD0020A1079C03002000C0FF00E4
:1035BC00F82A00800000125048B1054B054A1B68E0
:1035CC00B3FBF2F35843044B43F001031847704725
:1035DC009C03002040420F00F0C000000122024B6F
:1035EC00C3F80424704700BF002008E037B540231F
:1035FC000C460A490093411A491105462346084ACC
:10360C00084807F017F9011E05DA2846234603B0CF
:10361C00BDE83040184703B030BD00BFCC060020D9
:10362C00A9A8000020B60000C9B2012908B509D923
:10363C00084909487F23094A06F0A3FE7F21074861
:10364C0006F096FE0C22036901FB0233986C00F025
:10365C00070008BD4BD50000A2C400000ED5000029
:10366C0070B5C9B2012903690BD91849184840F241
:10367C00D113184A06F085FE40F2D111154806F018
:10368C0077FEEFF31185202484F31288BFF36F8F3C
:10369C000C2606FB0134A46C14F0C00408D0A24222
:1036AC0006D085F31188BFF36F8F4FF0FF3070BDDC
:1036BC00012271430B449A6485F31188BFF36F8F19
:1036CC0043680B445B6898470020F0E74BD500003B
:1036DC00A2C400000ED5000070B50D460649044684
:1036EC00411A491140220548FFF7BAFF2B46014603
:1036FC002046BDE870401847CC06002020B60000DC
:10370C0070B500220121044640F20510FFF776FB4C
:10371C000F4802F04DF90F4B984215D102F058F9B1
:10372C0026690D49304606F07BFE00280BDB01258F
:10373C00B5642469084904F1200006F071FE0028E4
:10374C0001DB0020656570BD6FF00400FBE700BF76
:10375C001D3800000000AD0BB8C100001FB50022E1
:10376C000123CDE902236B46084ACDF800D0CDF8F1
:10377C0004D007F08CF8002805DB43F6095200232F
:10378C00684604F0E9F905B05DF804FBC1A8000037
:10379C0010B5EFF31184202383F31288BFF36F8FDE
:1037AC00074A136823F00201DB07116002D40120E1
:1037BC0002F0C4F984F31188BFF36F8F10BD00BF02
:1037CC00240700200C22104B014602FB0033002082
:1037DC0030B4D3E910521864EFF31180202484F331
:1037EC001288BFF36F8F9C6C04F0C00444F0020489
:1037FC009C6480F31188BFF36F8F1DB12B4630BCD6
:10380C000248184730BC7047CC06002020B6000098
:10381C0008B506281CD8DFE800F025250D0F042577
:10382C002500114B986C10F007001BD1BDE8084027
:10383C00FFF7C8BF0120F9E70C4940F2FB230C4A03
:10384C000C4806F09EFD40F2FB21094806F090FD65
:10385C00064940F20533064A064806F092FD40F24E
:10386C000531F2E708BD00BFCC0600205EE4000085
:10387C000ED50000A2C4000010B4EFF31182202377
:10388C0083F31288BFF36F8F1648016841F002046E
:10389C000460C80707D482F31188BFF36F8F01202F
:1038AC0010BC02F0BFB81049D1F80C14C903F2D502
:1038BC00EFF3118083F31288BFF36F8F0B498B6C7E
:1038CC0003F0C00343F002038B6480F31188BFF351
:1038DC006F8F82F31188BFF36F8F002010BCFFF73E
:1038EC0071BF00BF2407002000E01050CC06002060
:1038FC002DE9F041012206464049D1E8EF3FC1E8ED
:10390C00E02F0028F9D1A3B93D493E484B60CB606C
:10391C008A60FDF7C3FD00280BDA3B494FF429738D
:10392C003A4A3B4806F02DFD4FF42971374806F012
:10393C001FFD5EB3731E012B56D8012E06D1354BDD
:10394C00D3F8503403F00303012B1FD007F013FD01
:10395C000546E8B9304B1B78D3B1042207462D4BF2
:10396C00C3F808232B4CDFF8B480D4F84C24D4F8DB
:10397C004C34D20315D503F00303012B01D0012ED7
:10398C000FD165B387F31188BFF36F8FBDE8F0815A
:10399C00EFF31187202383F31288BFF36F8F012578
:1039AC00E0E7BDB1384606F0F9FED4F8403413F028
:1039BC00FF03DAD1D4F80821002AD6D0C4F8083194
:1039CC00D4F8083120220123C4F84034C8F8A021CF
:1039DC002361CAE70021202005F0E8FAE5E704227C
:1039EC000C4BC3F80423D1E70D4940F2B623074A28
:1039FC00074806F0C6FC40F2B62197E7C80600203F
:103A0C00B8060020EC060020DDCB00000ED500002F
:103A1C00A2C4000000E01050F908002000E100E012
:103A2C005EE4000008B5074807F022FC38B10648F0
:103A3C00FFF752FD0448FDF709FB002008BD6FF0AD
:103A4C001200FBE7B0B60000593A000038B50D4D36
:103A5C0004462846FEF764FA002810DB0A2C04D131
:103A6C00AB680D2128465B689847AB6805485B68D6
:103A7C00E1B29847202200230248FEF719FC2046A9
:103A8C0038BD00BFB0B600000023024A0020C1E9D7
:103A9C00002370470050160000487047DCC100003E
:103AAC00024B0B6001231360704700BFE4C10000A0
:103ABC007FB50BAB05930393064B082202930023AF
:103ACC00CDE9003218460422FDF716FF07B05DF869
:103ADC0004FB00BF96D5000008B50122044811462E
:103AEC0007F0E9FB034B044A0020C3F80C2508BD82
:103AFC002807002000B004508000008010461A46B1
:103B0C00084B10B5994209D8C1F5B21404F580548C
:103B1C00A24203D807F0B4FC002010BD6FF01500D2
:103B2C00FBE700BFFF4F1600F0B5274B0546984248
:103B3C000E46144687B044D8C0F5B21303F5805333
:103B4C009A423ED8002A34D0204B08210393204BB4
:103B5C00CDE90402029300230422CDE9003118467A
:103B6C001C49FFF7A5FF4FF0FF324FF0FF331A4807
:103B7C0003F0F2FF40F20113184F2246C7F800354C
:103B8C00D6B13146284607F07BFCBFF35F8FD7F8E0
:103B9C001834DA0705D4230703D00123BB60BFF325
:103BAC005F8F4FF480720D4BC3F800250A4803F069
:103BBC0055FF002007B0F0BDFF21284607F06DFC33
:103BCC00E3E76FF01500F5E7FF4F1600A8D50000EE
:103BDC0096D500005CC000002807002000B00450FF
:103BEC000048704728C2000010B504460069012146
:103BFC004FF0FF3207F05FFB2046BDE81040014953
:103C0C0006F01ABD553D00002DE9F04743680F1E24
:103C1C0006461546D3F8209086B0C0F28780BB18B4
:103C2C004B4500F2838047EA0204C4F30B04002CDA
:103C3C007CD1FEF775F900287BDB304606F074FE6C
:103C4C004FF0FF3A002D64D0002C62D12346CDE911
:103C5C00004480220621304606F074FE04460028FB
:103C6C0057D14D4513D10346CDE900008022C72121
:103C7C00304606F067FE00250446002C49D140F280
:103C8C001B620023304606F0BEFE0446DAE702460D
:103C9C008046294B597881B10AFA01F037EA0000C5
:103CAC000BD101208840A84207D8B8F1000F1ED0D4
:103CBC0098F80100884238BF98460132042A03F173
:103CCC000203E7D1B8F1000F13D00023812298F83A
:103CDC0000103046CDE900333B4606F033FE01239D
:103CEC0098F80120044693401F44ED1AC5E7984606
:103CFC00E3E7124B40460393114BCDE90457029373
:103D0C0008231049CDE90083434606F0FDFD6FF012
:103D1C001504304606F0EDFD40F239120023304612
:103D2C00FEF7C6FA204606B0BDE8F0876FF0150422
:103D3C00F8E76FF00404F5E772D700004FD70000E6
:103D4C00DAD50000A4C000002DE9F04104468CB087
:103D5C00032900F2EF81DFE811F0CB010900040028
:103D6C001300002528460CB0BDE8F08106F0DCFD00
:103D7C00204606F0FAFE0546204606F0BAFDF1E7AD
:103D8C004668306807F074FA08B3F068D8B996F84A
:103D9C003830D9061ED4204606F0C6FD204606F063
:103DAC00E4FE002880F29E809B4B0390029300233C
:103DBC0001221846CDE90033984906F0A5FD2046AE
:103DCC0006F097FD03E007F053FA0028DFD16FF0FF
:103DDC001205C7E7B06907F04BFA034640B9904AA1
:103DEC008E49CDE901020122009006F08DFDEEE72F
:103DFC00B069317FF38B03F03002302AD0F810C059
:103E0C00D0E9015E0ED1874940F2F733864A8748E4
:103E1C0006F0B7FA864806F0B4FA40F2F731824859
:103E2C0006F0A6FA03F00602042A09D1814940F2F1
:103E3C00FE337D4A7D4806F0A4FA40F2FE31EEE7EF
:103E4C0001272D68DA0707FA01F754BF43F4D013A2
:103E5C0083F4B0132F4223F480120CD1764940F234
:103E6C001143714A714806F08CFA744806F089FACD
:103E7C0040F21141D3E7DCF80050DB074CBF3D4367
:103E8C00BD43CCF80050DEF80030984740B16C4B85
:103E9C0001220293002361491846CDE90033A4E7BF
:103EAC000121B069327F0369914042681268114266
:103EBC000CD1614940F2A2635B4A5C4806F061FA9E
:103ECC005E4806F05EFA40F2A261A8E71B68194250
:103EDC00836814BFDB681B699847054600283FF4CC
:103EEC005AAF3FE7204606F07DFD051E1EDDE907B3
:103EFC000CD4204606F0FDFC2046FEF711F80028F5
:103F0C0025DA6FF004054F4B039516E04E4B022259
:103F1C000293002341491846CDE9003306F0F4FC26
:103F2C0000220023204606F06EFD0546204606F0D2
:103F3C00E0FC002DE0DA454B0395029300230122AF
:103F4C001846CDE90033354906F0DEFC3FE7204644
:103F5C0006F0EAFC4FF0030800230BAF1A469F2132
:103F6C002046CDF80480009706F0ECFC0546204670
:103F7C0006F0BFFC40F2391200232046FEF798F9F8
:103F8C00002DC0D13846424606F12C0107F08DFABF
:103F9C000746F0B196F82E302846089396F82D3047
:103FAC000122079396F82C301C4906939DF82E306D
:103FBC00009505939DF82D3004939DF82C300393B8
:103FCC00234BCDE901532B4606F09EFC6FF01505F3
:103FDC00C8E696F83030002B56D0204606F0A4FCEC
:103FEC00204606F0FFFC051E49DD96F83030802295
:103FFC0025EA030506213B462046CDE900778DF8DE
:10400C002B5006F09FFC054630B3204606F071FCA1
:10401C00104B039591E700BF28D60000A4C0000008
:10402C00F7D5000069C4000038C40000A2C4000029
:10403C00BFC40000FCC400002FC500006DC500000B
:10404C000BD6000086D6000040D600005DD60000DE
:10405C009FD60000DDD6000001210DF12B0300934B
:10406C00802203460191204606F06CFC0546002890
:10407C00CBD100220023204606F0C5FC0546204685
:10408C0006F037FC002DC3D196F82F5085B32B4B7F
:10409C00002603932A4B0422029308233046CDE9D1
:1040AC00006328493346049506F02EFCFF2D1FD0E3
:1040BC0015F00B0F3BD0204606F036FC15F008032C
:1040CC001DD00123802201930DF12B0300931721A6
:1040DC0033468DF82B20204606F034FC054600BBF9
:1040EC0022692046137D43F00103137506F001FC91
:1040FC00204606F019FC204606F088FD3BE6AA0790
:10410C0005D400238022B721CDE90033E3E78022D8
:10411C0006212046CDE9003306F014FC05460028A4
:10412C00EFD0204606F0E5FB074B039505E76FF053
:10413C008505F9E76FF0570514E600BF36D7000088
:10414C00F2D60000A4C0000015D7000010B503691A
:10415C0061B920494F23204A204806F012F9204823
:10416C0006F00FF94F211C4806F002F9486850B9C7
:10417C001C495023184A194806F003F91A4806F04E
:10418C0000F95021EFE75868F8B1884219D19C68C2
:10419C000868A142586000D19860002008602AB1DC
:1041AC005A680A609A68596002B99960002010E058
:1041BC00814206D10868206098688142EDD19C60EC
:1041CC00EBE7044600680028F2D1002AE8D16FF032
:1041DC00150010BDB6D700007AD70000A2C40000AD
:1041EC00BFD70000CED70000E0D7000070B54568FF
:1041FC0006462B69E3B11035284602F0D5F9044682
:10420C00B0B90146284602F089F90E4B984215D1F7
:10421C00224628460C4902F043F922460121DB20B4
:10422C00FEF7ECFD2246012140F20D10FEF7E6FDF3
:10423C003046BDE87040054906F0FEB96FF0040049
:10424C0070BD00BF0000AD0BB545000071AC0000A7
:10425C0008B503685F2B4FEA531107D80C4A03F0DB
:10426C001F0352F82120DA40D2070BD409490A481F
:10427C0040F2CA33094A06F084F840F2CA310748C2
:10428C0006F076F80360064B53F8210008BD00BF1A
:10429C003CC200002AD80000A2C40000F7D70000DE
:1042AC0030C20000F0B5406801F01F04057B87B0F8
:1042BC0044EA45140569002D77D0B2F5001F00F1D2
:1042CC00100506D12146284606F046FF002007B00F
:1042DC00F0BD0027B2F5800F01AE0197776033D1A6
:1042EC00B3F1007F14BF052304238DF804300023A1
:1042FC00CDE9046303938368CB40D90739D4B2F179
:10430C00A07F36D168460094FFF7A2FF009B2033B4
:10431C0050F82330DB072CD46A462146284602F09D
:10432C00CDF8254B98421AD0CDF808D02146284616
:10433C0003AA01F033FF214B984239D101222146C7
:10434C00284602F04FF9C1E7B3F1C06F05D0B3F1C5
:10435C00007F14BF01230223C7E70323C5E7694687
:10436C00284602F037F9154B9842DDD06FF00B0060
:10437C00ADE76A462146284602F0A0F80F4B0646E8
:10438C009842D3D128469DF8001002F01BF9B04298
:10439C00CCD00B490B4840F2E1130B4A05F0F1FF6E
:1043AC0040F2E111084805F0E3FF6FF085008EE75D
:1043BC006FF015008BE700BF0400AD0B0000AD0BD8
:1043CC0079D80000A2C400004DD800002DE9F04FB0
:1043DC0040F2063B0F46D10648BF0323D0F80480B9
:1043EC0002EA0B0B58BFC2F3401387B0BBF5837FB7
:1043FC000546144698F80C908DF8033022D014D84A
:10440C00BBF1060F27D00AD8BBF1000F1CD0BBF1B3
:10441C00020F19D06FF0150007B0BDE8F08FBBF597
:10442C00807FF7D14FF0010B0EE040F20222934552
:10443C0014D0BBF5407F14D0BBF5007FEAD14FF010
:10444C00040B01E04FF0090B2846FDF769FD061E31
:10445C000ADA3046E0E74FF0080BF5E74FF0060BB1
:10446C00F2E74FF0050BEFE722032FD50122D8F826
:10447C000430BA405A60D8F8103007F01F0747EAEA
:10448C0049175BBB03A80397FFF7E2FE039B9DF85C
:10449C00031000EB830084F48033D0F88020C4F345
:1044AC004044C3F3004344EA430322F4706243EAFA
:1044BC00810422F00F0244EA0B231343C0F880302E
:1044CC002846FDF7D3FC002EA6D0C2E7630341BFFC
:1044DC000123D8F80420BB409360CCE708F1100806
:1044EC00394640460DF1020201F0E8FF14F4403F5A
:1044FC00814617D13946404606F02CFE264B99458D
:10450C00DED140469DF8021002F05CF84845D7D049
:10451C0022492348DE23234A05F033FFDE212148BC
:10452C0005F026FF4FF0000A01AB3946404603AABE
:10453C00CDE9043ACDE901AACDF80CA001F02EFE8C
:10454C00154B984203D02846FDF790FC62E714F413
:10455C00003315D09DF8033084F48034C4F3004448
:10456C008DF80E3039465346404603AA8DF80CB0F0
:10457C008DF80D4001F0FAFE074B9842E3D1BDE7F0
:10458C00CDE9043339460DF10303404603AA0393E6
:10459C0001F004FEF0E700BF0000AD0B79D800007D
:1045AC00A2C400004DD800004209022A034670B58F
:1045BC0003D0012A1FD002B370BD154E3269516869
:1045CC000029F9D0012503F01F030C689D40002938
:1045DC00F2D08A682A4014D04B6883B90D497423F1
:1045EC000D4A0E4805F0CDFE0D4805F0CAFE7421AB
:1045FC00094805F0BDFE0B4EE0E70B4EDEE73046FA
:10460C0098471CB1236821461C46E0E72346FAE78D
:10461C008CB6000001E400007AD70000A2C40000B0
:10462C00E0D7000068B6000044B6000008B5036887
:10463C005F2B4FEA531107D80C4A03F01F0352F8B3
:10464C002120DA40D2070BD409490A4840F2CA3378
:10465C00094A05F096FE40F2CA31074805F088FE7B
:10466C000360064B53F8210008BD00BF9CC200003C
:10467C002AD80000A2C40000F7D7000090C20000A6
:10468C002DE9F04F1546824640F2FF19DFF864B170
:10469C0085B000EB8108D04503D1002005B0BDE802
:1046AC00F08FDAF80020C2F3C3210829C2F3080402
:1046BC0000F29D80504B4C4508BF4FF0FF34B2F1D7
:1046CC00D05F5F5C4FEA126110D2192910D8DFE875
:1046DC0001F01219205B23295B0F0F0F0F0F0F0F27
:1046EC000F0F0F0F0F0F0F0F5E72757838296BD0ED
:1046FC006FF08500D2E7C5F80446631C51D10AF16E
:10470C00040AC8E7C5F80C46621CF8D000263146EE
:10471C0016E0C5F81046F0E7661CC5F80046EED06A
:10472C00002604E0601CC5F80446E8D0012603A866
:10473C000394FFF77BFF0121039A01FA02F28260D6
:10474C00DAF80020039402F40040002818BF00217E
:10475C0003A818BF012601920091FFF767FF039C85
:10476C00019A00EB8400D0F88040C2F3412C0099F0
:10477C003A0242EA8C020A4304EA0B04224342EA5C
:10478C004602C0F88020BAE7C5F80846BCE7C5F871
:10479C006045611CDAF80020B1D0C2F30042002A57
:1047AC00C4D0012603A80394FFF740FF039A06FA2E
:1047BC0002F24260ABE7C5F86445EAE7C5F8684524
:1047CC00E7E7C5F86C45E4E703A80394FFF72EFF71
:1047DC00039A631C00EB8200D0F8802022F0E042A8
:1047EC0042F08042C0F8802089D001268FE76FF01C
:1047FC00150053E7F0F0FCFFAFD80000014905F0BD
:10480C0039BF00BF2D4900007FB50BAB0593039357
:10481C00054B0122029300231846CDE90033FDF726
:10482C006BF807B05DF804FBB8D8000070B586B023
:10483C0004460021C06805AA06F064FA00284FF06F
:10484C00000314DB40F2FF1505990879DAB29042A7
:10485C0016D90A6852F82320C2F30802AA4204D0DF
:10486C0094F92D60B6EB521F0DD10133EEE7074AD8
:10487C001846CDE90132064901220093FFF7C4FF27
:10488C00002006B070BD0120FBE700BFB8D80000C7
:10489C00B4C0000038B5054600220121C620FEF741
:1048AC00ADFAC620FEF77AFA6C680121E06806F0D2
:1048BC0077FA6B6819686369C1F82435E28BA38BAE
:1048CC00A07E1343228C1343628C1343627E9BB2F3
:1048DC000243207E02431343C1F86C3569680B68B0
:1048EC00D3F8002242F48022C3F800220822C3F835
:1048FC0000254A6A0121C3F83C270022C3F840274F
:10490C001965D3F830110029FBD0C3F800252846CF
:10491C00BDE83840014905F08FBE00BF2D490000AD
:10492C000129F8B5054632D143680021D86806F054
:10493C0037FA6D680021E8682C6806F031FA082314
:10494C00C4F8003595F82C3093B12846FFF76EFF6C
:10495C0070B133494FF44473324A334805F011FDBA
:10496C00324805F00EFD4FF444712E4805F000FD61
:10497C002A7A52B9AB6AC4F804370123C4F8083751
:10498C00C4F84C21D4F84C21A3620020F8BD0029B6
:10499C0043D146683468D4F85031B3B10123E36293
:1049AC00D4F82431002BFBD00023C4F85031D4F8B8
:1049BC005021C4F82431D4F82421C4F84C31D4F853
:1049CC004C21C4F81431D4F814316B684FF47A7557
:1049DC001F68D7F8303123B9012006F0E1FA013D08
:1049EC00F7D196F82C3083B13046FFF71FFF60B13A
:1049FC000B4940F6AE130B4A0B4805F0C2FC0B48B2
:104A0C0005F0BFFC40F6AE11AFE70121F06806F0EF
:104A1C00C7F90023C4F80035B7E76FF08500B5E798
:104A2C005EE40000D1D80000A2C4000005D900004B
:104A3C002DE9F04704460D46476806F09CFC636878
:104A4C00D4F81090D3F80080A8B92F4A127892B1FC
:104A5C004FF0200A642663681B68D3F83031002BB2
:104A6C0040D1012006F09CFA013EF4D10021202017
:104A7C0004F09CFAEEE72021EFF311831E4681F33C
:104A8C001288BFF36F8F62681268D2F8302122B996
:104A9C0083F31188BFF36F8FEEE7D9F804301A0750
:104AAC0006D443F008032046C9F80430FDF738FA61
:104ABC004FF48053C8F804337B6A00211D7063687F
:104ACC007A6A1B68C3F83C270122C3F84027C3F855
:104ADC003011D3F830111A6586F31188BFF36F8F3C
:104AEC00BDE8F087EFF311831E468AF31288BFF3FB
:104AFC006F8F62681268D2F83021002ACDD183F30F
:104B0C001188BFF36F8FB1E7F908002008B503686F
:104B1C005F2B4FEA531107D80C4A03F01F0352F8CE
:104B2C002120DA40D2070BD409490A4840F2CA3393
:104B3C00094A05F026FC40F2CA31074805F018FC7A
:104B4C000360064B53F8210008BD00BF10C30000E2
:104B5C002AD80000A2C40000F7D7000004C300004C
:104B6C00012310B503FA01F1436804691B6819426B
:104B7C000ED10E4940F2A2630D4A0E4805F001FC1D
:104B8C000D4805F0FEFB40F2A261094805F0F0FB70
:104B9C002368194218BF82F0010222B18368DB68D6
:104BAC00BDE81040184783681B69F9E72FC5000062
:104BBC0038C40000A2C400006DC500002DE9F0430C
:104BCC00456801210769064687B0E86B06F030F9A5
:104BDC00296C481C24D005F1440000F007FC10F1AE
:104BEC00130F04460FD14D4B0122029300234C4965
:104BFC001846CDE9003306F00BF96FF0120420468D
:104C0C0007B0BDE8F083411D0AD1464B0122029347
:104C1C00002343491846CDE9003306F0F9F8EEE7D6
:104C2C004FF001086B6B9847BD68D7E9023203EB74
:104C3C00C2039D4209D3384606F06FF930463A4913
:104C4C0007B0BDE8F04305F0F7BC286806F010FB90
:104C5C00034668B92A79324904922A68126800908E
:104C6C000392324ACDE90102012206F0D1F8C4E7E1
:104C7C0028682979EB8803F03002302AD0F810E04C
:104C8C00D0E901490ED12A4940F2F733294A2A4882
:104C9C0005F077FB294805F074FB40F2F731254805
:104CAC0005F066FB03F00602042A09D1244940F200
:104CBC00FE33204A204805F064FB40F2FE31EEE75B
:104CCC002468DA0708FA01FC54BF43F4B01383F4E8
:104CDC00D0131CEA040F23F480120CD1194940F2B2
:104CEC001143144A144805F04CFB174805F049FBD6
:104CFC0040F21141D3E7DEF80040DB074CBF4CEA31
:104D0C00040424EA0C04CEF80040D9F8003098478B
:104D1C00041EFFF674AF083587E700BF5FD90000AB
:104D2C00ACC000008AD900005BAE0000A7D900001F
:104D3C0069C4000038C40000A2C40000BFC4000055
:104D4C00FCC400002FC500006DC50000F0B5144B6D
:104D5C0087B005690393134B0026029308230F4673
:104D6C00CDE90063049104463346042230460E49D3
:104D7C0006F04EF82F6305F1200002F06FFE2B6851
:104D8C0085F85C609B889B0402D52046FDF7C8F82B
:104D9C000121204607B0BDE8F04006F0CEB800BFB8
:104DAC00E3DB0000CBD90000ACC000002DE9FF41D3
:104DBC0005690646AA6CD0F804802B6D002A35D103
:104DCC00002B53D0B8F83840686C9C4228BF1C4666
:104DDC00EF6CEB6C53B12A6D42B107F06042B2F14B
:104DEC00005F03D0082C28BF08246F6E6A6CAC657A
:104DFC001AB1AA6C002A18BF224601921BB12B6D66
:104E0C00002B18BF234600900022694640460393AE
:104E1C00029702F011FA184B984229D06FF0040156
:104E2C00304604B0BDE8F041FFF790BF696CEF6C01
:104E3C000846B8F83840ABB1934228BF13469C42A1
:104E4C0028BF1C460029C4D001F06043B3F1005FB9
:104E5C00BFD0082C28BF0824286E224606F010FB71
:104E6C00286EB6E7944228BF1446EBE71946D7E7FD
:104E7C0004B0BDE8F08100BF0000AD0B10B50278A6
:104E8C00034686B0002A40F08E800C69A26D3AB9B8
:104E9C006FF07301606D06B0BDE81040FFF756BFB0
:104EAC00E06C40B1216D31B1DB6823B1834202D09B
:104EBC00616E06F0E5FAA36C63B1A26D9A421ED93D
:104ECC003A4B01220293002339491846CDE90033AD
:104EDC0005F09EFF236D63B1A26D9A4239D9334B15
:104EEC0001220293002332491846CDE9003305F024
:104EFC008FFF606D06B0BDE81040FFF757BF9B1ADF
:104F0C00A36403BB636B04F1480208336363A36BB4
:104F1C0004F13801013BA36304F1340005F065FF93
:104F2C006064A36C08210593636C04220493214BE9
:104F3C000393214B02930023CDE9003118461C4901
:104F4C0005F066FFC6E7636C002BEAD0134463647C
:104F5C00E7E79B1A236503BBE36B04F150020833AC
:104F6C00E363236C04F14001013B236404F13C0036
:104F7C0005F03BFFE064236D08220593E36C0C49BC
:104F8C0004930E4B03930E4B02930023CDE9003296
:104F9C001846042205F03CFFABE7E36C002BEAD08B
:104FAC001344E364E7E706B010BD00BFF3D900007B
:104FBC00ACC0000026DC000011DA000010DC0000A0
:104FCC0027DA00002DE9F04F88469DB00D93436819
:104FDC0007460E9391460469FCF7A2FFB8F804301B
:104FEC009E043BD44FF0FF324FF0FF3304F110001E
:104FFC0002F0B2FDC4F80480D7F804B0D7F810A0C2
:10500C00DBF808300F939AF85D3023B1DAF80030F2
:10501C00984500F0BA80B8F804C01CF4006324D0A2
:10502C00B84B012202930023B7491846CDE900334F
:10503C0005F0EEFE6FF085053846FCF717FF236888
:10504C0013B19B889B0405D40023636004F110000A
:10505C0002F004FD28461DB0BDE8F08FA369002BBB
:10506C00C0D163689845BDD1C6E71CF001020DD0D4
:10507C003A6818460392A54AA349CDE90132009338
:10508C00012205F0C5FE6FF01505D5E71CF00803ED
:10509C000AD09F4B0092CDE90123134601221846FA
:1050AC00994905F0B5FEEEE7CCF34512082A04D079
:1050BC00984ACDE901320093F0E7D8F800E0964A1F
:1050CC00964501D8954AF4E712AD0BF10C060FCEBC
:1050DC000FC50FCE0FC50F9B96E80300734594BF09
:1050EC001793CDF85CE01CF0020F85E803000CF080
:1050FC0004033AD0002B14BF032302238DF8603035
:10510C00CCF300138DF86130DBF80030D3F80036A7
:10511C005D1C0AD01CF0020F119311A829D1FFF7C6
:10512C00F5FC0123119A934083609AF85D302BB102
:10513C00584602F025F800238AF85D303B46584665
:10514C00774A12A901F0D6FF764B984218D0764BCD
:10515C0003900293002301221846CDE900336A49DB
:10516C0005F056FE6FF0040566E7003B18BF0123FF
:10517C00C4E7FFF7CBFC0123119A93404360D4E7BB
:10518C000123CAF800808AF85D30384605F0AFFA82
:10519C00012384F85C300E9B196C481C0FD003F172
:1051AC00440000F053F9743009D1604B0222029391
:1051BC00002355491846CDE9003305F029FE01239B
:1051CC0006930D9B0822CDE90493594BDFF86481BB
:1051DC00029300234C49CDE9003218460422CDF845
:1051EC000C8005F015FEB9F1000F40F0A980C4F851
:1051FC0034900023A36304F1480204F1380104F154
:10520C00340005F0F2FD0D9B06466064002B40F067
:10521C00A080E3630023236404F1500204F14001F5
:10522C0004F13C0005F0E1FD0025236DE0642563ED
:10523C00CDE90A03A36C0422CDE90863236C28464C
:10524C000793E36B30490693A36B0593636BCDE92E
:10525C000383394B02930823CDE900532B4605F009
:10526C00D7FD01212A46204605F036FE3846FFF7C9
:10527C009DFD2B46A16B8B4274D100231A46206CEA
:10528C00824276D19D4238BF1D4626464FF4FA53D2
:10529C004FF000085D4356F8203B47F6122C1B6874
:1052AC004146B5FBF3F540F2E730C8354FF47A725E
:1052BC000023E5FB0C01FBF7DBF802460B463046FE
:1052CC0002F04AFC00285BD01C4B0122CDE9018383
:1052DC00404643460C49CDF8008005F099FD002569
:1052EC000E98A56501F04CFF6FF07301384684F8F9
:1052FC005D50FFF72BFD304602F0A8FC6FF07305F4
:10530C009DE600BF3DDA0000ACC0000057DA00009B
:10531C0079DA000098DA000047E80100C7DA0000EB
:10532C00894E00000000AD0BF8DA00001FDB000016
:10533C0049DB0000F6DB00006ADB0000BDDB00008F
:10534C00D9F800306363002B3FF453AFD9F8043025
:10535C0050E70D9B1B68E363002B3FF45BAF0D9B89
:10536C005B6858E7626B02EBC30252680133154469
:10537C0081E7E16B01EBC201496801320B447FE725
:10538C00256B15F1740FAAD0002D3FF458AE0121F6
:10539C00384605F0D2FD52E608B503685F2B4FEA9C
:1053AC00531107D80C4A03F01F0352F82120DA409E
:1053BC00D2070BD409490A4840F2CA33094A04F00F
:1053CC00E0FF40F2CA31074804F0D2FF0360064BFD
:1053DC0053F8210008BD00BFB4C300002AD8000058
:1053EC00A2C40000F7D70000A8C300000123F0B549
:1053FC0087B08DF80230022300248DF804306B4402
:10540C0003930F4601AB0DF1030104930546029182
:10541C00059401F0DFF80C4B064698420FD1394643
:10542C00284603AA00F0BAFEB0420BD028469DF8DD
:10543C00031001F0C7F86FF0040007B0F0BD6FF077
:10544C001200FAE72046F8E70000AD0BF7B50C4662
:10545C00054605F083FE002221460646284601F04B
:10546C00C1F801A80194FFF797FF019B00EB8302A1
:10547C00D2F88010154B0B4043F00C03C2F880306F
:10548C0000F08AF807462B689B59B3B100262146D9
:10549C00284605F061FE01A80194FFF77DFF019BF2
:1054AC0000EB8300D0F88020084B134043F004033A
:1054BC00C0F88030304603B0F0BD00F06DF8C01B72
:1054CC00C728E0D96FF07306E1E700BFF0F0FCFFEE
:1054DC0070B514461D4605F059FDA042A94113D3E1
:1054EC000A4AD2E90061A41B24F01F0365EB0100FA
:1054FC009B1941EB0001C2E90031640944EAC06028
:10550C00BDE8704004F056BA70BD00BFD003002057
:10551C0010B500220121E420FDF770FC174A002091
:10552C00D2F8183723F44033C2F8183701F01CFABC
:10553C00134B0446984208D10120124901F0C8FAD5
:10554C00A04205D0104B984214D04FF0FF3010BD44
:10555C0005F01CFD67220D4B20F01F00C3E9000174
:10556C000B4BC3E900010B4B02201A60FEF7C0F98C
:10557C000020ECE76FF00B00E9E700BF00200E50B5
:10558C000000AD0B980300200200AD0BD0030020EF
:10559C00C80300207C07002038B5EFF311852023C9
:1055AC0083F31288BFF36F8F174804F06FF868B954
:1055BC008823164A1649174804F0E3FE1249164888
:1055CC0004F0DFFE8821114804F0D2FE0E4804F0EE
:1055DC0081F805F0DBFC04460B4804F065F868B96B
:1055EC004FF49A73094A0D490A4804F0CAFE064959
:1055FC000B4804F0C6FE4FF49A71E4E785F311886A
:10560C00BFF36F8F204638BD80070020A1C9000072
:10561C00FAC90000A2C400000FCA0000CEC90000E5
:10562C00E5C9000008B505F0B1FC054AD2E9003225
:10563C00C01A61EB0201400940EAC16008BD00BF1D
:10564C00D003002037B5431C0CBF6FF0004420EA98
:10565C00E07405F09BFC0D4BD3E90025801A61EB3F
:10566C0005032021C4FB0103402873F100042CBF67
:10567C0020F01F01002352184FF0010145EB0303EA
:10568C000091034801F0B8FA03B030BDD0030020FC
:10569C0090030020064BD3F840231C2A05D1D3F8E5
:1056AC004403431E5842584170470020704700BFC6
:1056BC0000C0FF0003689A070CD50368DB070DD503
:1056CC000922074BC3F80C250F22C3F8042501222D
:1056DC001A60FEE7034B0360EF3B0360704700BFAB
:1056EC0000801050F000FA5008B501233E4A3F48A4
:1056FC00C2F800383E4AD2F840231C2A04BF3D4A67
:10570C00C2F80C34FFF7D6FF0830FFF7D3FF083090
:10571C00FFF7D0FF0830FFF7CDFF00F5F470FFF76F
:10572C00C9FF354AD2F88C3043F44063C2F88C3050
:10573C000022D30003F57F0303F54043D3F8001494
:10574C0001310AD0D3F8001439B1D3F80014013266
:10575C00D3F80434402A0B60EBD1234BD3F840240C
:10576C00002A3DD0FFF796FF48B1214BD3F83423E4
:10577C00224B9A429EBF1C4B214AC3F84026FFF78E
:10578C0089FF18B11F4B204AC3F8AC27FFF782FFE3
:10579C0048B13422144BC3F82426D3F83C2622F407
:1057AC000022C3F83C26124BD3F840331C2B08D1F3
:1057BC00164BD3F80026D20744BF6FF00102C3F892
:1057CC0000260323124A0C49C2F81835D1F88C3044
:1057DC0043F44063C1F88C300023C2F8A03508BDF7
:1057EC00C822C3F84024BDE70000125000C50D507C
:1057FC0000C0FF000030055000ED00E0001D0A184D
:10580C0040E0A91E00A0085078000A0400E01050E7
:10581C0000B0045030B50468ACB1B4FA84F3012282
:10582C00C3F11F03DBB29A4024EA0202D0E8EF5F17
:10583C00A54204D1C0E8EC2FBCF1000FF6D1EAD19F
:10584C0002480B7030BD0248FCE700BF0000AD0BF6
:10585C000200AD0B10B50368CB40DB0710D401235D
:10586C008B40026843EA0201D0E8EF4F944204D126
:10587C00C0E8EC1FBCF1000FF6D1F2D1014810BD0D
:10588C000148FCE70000AD0B0400AD0BF7B5044676
:10589C0068B101283DD03F493F484FF486733F4AD9
:1058AC0004F06FFD4FF486713C4804F061FD142246
:1058BC004FF4847304203A490025C1F808030120F1
:1058CC0002F1A04203F1A04303F5871302F58712FE
:1058DC0010601D601B68334BD3F840331C2B1DD05C
:1058EC00844201D10DF10705002342F210762C4FB2
:1058FC008DF80730002C37D0012C19D025492648BB
:10590C0040F2EE43284A04F03CFD40F2EE412648BA
:10591C00CBE704224FF480737120CCE7012CE3D148
:10592C00CC60DFE783B1012005F03AFB013E27D0C4
:10593C00D7F80C3403F48033002DF3D0002B0CBFBC
:10594C00012300232B701DD10022184B5A7117E034
:10595C00012005F025FB013ECCD111E083B10120E3
:10596C0005F01EFB013E0BD0D7F84C3403F480330A
:10597C00002DF3D0D7F84C2402F003022A700BB997
:10598C0003B0F0BD9DF80730002BE1D0012CF7D10E
:10599C00DAE700BF5EE40000A2C40000F1DD000005
:1059AC0000E0105000C0FF002EDE00008407002035
:1059BC00044B1A7922B9012218601A7102487047F7
:1059CC0002487047840700200000AD0B0C00AD0BA3
:1059DC0008B50F4B1A795AB90E490F484FF4B673E4
:1059EC000E4A04F0CEFC4FF4B6710C4804F0C0FC27
:1059FC001B6843B140F20510FDF7F2F918B940F2FB
:105A0C000510FDF7CBF90022054BC3F8402408BD67
:105A1C008407002062DE0000A2C40000F1DD00005B
:105A2C0000E0105038B53E4C23795BB93D4940F24B
:105A3C00C1133D4A3D4804F0A4FC40F2C1113A4860
:105A4C0004F096FC3A4B58B101284AD0394940F23F
:105A5C001D23354A354804F094FC40F21D21EEE735
:105A6C00D3F84C14D3F84C24C80322D502F003030A
:105A7C00012B04D013B10020FFF708FF00232C4AA0
:105A8C000420C2F8403410224FF48473002103F137
:105A9C00A04303F5871319601D68012502F1A0428C
:105AAC0002F58712156022689AB3214BC3F80403E0
:105ABC000CE0D3F84824D107E0D5D3F85024920752
:105ACC00D9D422681AB10422C3F8042338BDD3F800
:105ADC000821002AFBD00022C3F80821D3F8083192
:105AEC00F4E70022C3F81021D3F81011C3F81821E1
:105AFC00D3F81811C3F81421D3F814210E4AD2F894
:105B0C0040231C2A00D1986000224FF4807371202E
:105B1C00BCE71A68002AFCD019601B68D6E700BFE6
:105B2C008407002062DE0000F1DD0000A2C400004A
:105B3C0000E010505EE4000000C0FF0008B5094B07
:105B4C001B795BB90849094840F23723084A04F02D
:105B5C0018FC40F23721064804F00AFCBDE8084066
:105B6C00FFF794BE8407002062DE0000A2C4000090
:105B7C00F1DD000070B50025264C274ED4F80C330F
:105B8C0003B970BDB3FA83F3C3F11F039A0002F596
:105B9C00807292B202F1A04202F58712156012686F
:105BAC000122D8B202FA03F3DBB2102BC4F808338B
:105BBC0024D00FD893422AD0042B11D0174918485F
:105BCC004FF46F73174A04F0DCFB4FF46F711548F8
:105BDC0004F0CEFB202B1AD0402BEFD1757116E0C0
:105BEC00D4F84C14D4F84C14890710D1C4F84024C0
:105BFC00C4F804332261D4F80C33C1E70223737167
:105C0C00C4F81451D4F814312023C4F80433336885
:105C1C009847F0E700E01050840700205EE4000095
:105C2C00A2C40000F1DD00005F2898BF074B4FEACB
:105C3C0050129FBF53F8223000F01F0023FA00F0DF
:105C4C0000F0010088BF0020704700BFCCC30000EB
:105C5C00034A4309D35C00F01F001844C0B27047DC
:105C6C0072DF000070B505460846FFF7F1FF3C21D6
:105C7C002A791E4B01FB0202083233F81200C105CF
:105C8C0027D578240026C0F3432120F4F85023F8BC
:105C9C0012002A7904FB02340E3434F8020F10F48B
:105CAC00807F03D0C0F34320814212D00136232ED3
:105CBC00F3D10020C2EB02120A4443F832007820E0
:105CCC002A7900FB02306030FFF7C4FD084B984284
:105CDC0000D170BD0749084840F2EB13074A04F0A5
:105CEC0050FB40F2EB11054804F042FB8C070020FE
:105CFC000000AD0B79D80000A2C40000BFDE00008C
:105D0C0010B5016804460846FFF78EFF58B91049D4
:105D1C0040F2CA330F4A104804F033FB40F2CA3148
:105D2C000C4804F025FB01F01F035F2923604FEAA8
:105D3C00511209D9094940F2D333064A064804F0F6
:105D4C0020FB40F2D331EBE7054B53F8220010BD9A
:105D5C002AD80000F7D70000A2C400005EE40000BF
:105D6C00C0C30000072808B50BD90849084840F201
:105D7C00D133084A04F005FB40F2D131054804F058
:105D8C00F7FA800000F5807008BD00BFB5DE00009A
:105D9C00A2C4000080DE0000F0B50646002487B0E7
:105DAC00114F019117F8012B06AB03EBD20313F83B
:105DBC00143C02F00702D34013F0010306D1013466
:105DCC00032CEFD10023184607B0F0BD074A03ADF2
:105DDC0007CA85E8070055F824100A6A46F82420FB
:105DEC000A62002AEBD0EEE782DF0000D0C0000090
:105DFC0010B504460846FFF72BFF3C2303FB0400B9
:105E0C00024B083033F81000400B10BD8C070020FB
:105E1C0010B504460846FFF71BFF3C2303FB0400A8
:105E2C00034B083033F81000C0F3400010BD00BF26
:105E3C008C07002010B504460846FFF709FF3C23E9
:105E4C0003FB0400044B083033F8100010F01C0066
:105E5C0018BF012010BD00BF8C07002010B50446F0
:105E6C000846FFF7F5FE3C2303FB0400034B083008
:105E7C0033F81000C0F3401010BD00BF8C07002099
:105E8C0010B504460846FFF7CFFE58B91B4940F23F
:105E9C001E231B4A1B4804F074FA40F21E211848BA
:105EAC0004F066FA24792046FFF7B2FF48B1164990
:105EBC0040F21F23124A134804F063FA40F21F21E8
:105ECC00EDE72046FFF7B6FF48B910494FF40873C9
